:100000000C943C030C949F0E0C94780E0C94640397
:100010000C9464030C9464030C9464030C941E0FFE
:100020000C9464030C9464030C9464030C942E0EDF
:100030000C9464030C94EC0E0C94C60E0C946403A4
:100040000C9464030C9464030C9464030C946C0F80
:100050000C94640300407A10F35A00A0724E180901
:100060000010A5D4E80000E87648170000E40B541F
:10007000020000CA9A3B000000E1F50500008096EE
:100080009800000040420F000000A0860100000020
:10009000102700000000E8030000000064000000DA
:1000A00000000A00000000000100000000002C76A3
:1000B000D888DC674F0823DFC1DFAE59E1B1B796BE
:1000C000E5E3E453C63AE651997696E8E6C284261B
:1000D000EB898C9B62ED407C6FFCEFBC9C9F40F2F7
:1000E000BAA56FA5F490055A2AF75C936B6CF96773
:1000F0006DC11BFCE0E40D47FEF520E6B500D0ED38
:10010000902E0300943577050080841E080000209F
:100110004E0A000000C80C333333330F986E12833D
:100120001141EF8D2114893BE65516CFFEE6DB1811
:10013000D1844B381BF77C1D901DA4BBE4242032D6
:1001400084725E228100C9F124ECA1E53D2753743D
:100150006570706572206D6F746F72207265616377
:10016000686564207468652072657175657374656F
:100170006420706F736974696F6E3A200052656114
:10018000636865642066696E616C20706F73697462
:10019000696F6E0057617465722070756D702074A0
:1001A000696D656F757420696E74657272757074AF
:1001B0002074726967676572656421005475726E98
:1001C000696E67206F666620616972207175616C67
:1001D0006974792073656E736F72005475726E69FD
:1001E0006E67206F6E20616972207175616C697431
:1001F000792073656E736F7200426F6F74696E67FA
:10020000204669726D7761726520666F7220417257
:100210006475696E6F204E616E6F20233120284413
:1002200069676974616C29207769746820737570D7
:10023000706F727420666F72204C69676874205307
:10024000656E736F722C205761746572666C6F7780
:100250002053656E736F722C2050756D7020636F24
:100260006E74726F6C2C20456E7669726F6E656D60
:100270006E742053656E736F722C205761746572B3
:10028000204C6576656C2053776974636820616ED5
:10029000642053746570706572204D6F746F7220A6
:1002A000636F6E74726F6C00426F6F74696E67205B
:1002B0004669726D7761726520666F722041726463
:1002C00075696E6F204E616E6F2023322028416E5B
:1002D000616C6F6729207769746820737570706F1F
:1002E000727420666F72204D6F6973747572652029
:1002F00053656E736F72732C204169722051756162
:100300006C6974792053656E736F7220616E64201E
:100310006C696768742064696D6D696E6720636FCE
:100320006E74726F6C000A20202020202020202074
:100330002020202020205F5F2F290A20202020203D
:10034000202020202020202E2D285F5F283D3A0AE3
:100350002020202020202020202020207C20202041
:10036000205C290A20202020205F5F5F5F5F202023
:100370007C20205F0A202020202F20202020205CAD
:10038000207C202F205C200A2020202020202020DC
:100390005F5F5F5C7C2F5F5F5F5C200A2020202016
:1003A0002020205B2020202020202020205D5C2099
:1003B0000A20202020202020205C20202020202017
:1003C000202F20205C200A202020202020202020F8
:1003D0005C20202020202F200A20202020202020E8
:1003E0002020205C5F5F5F2F200A005761746572D8
:1003F0002070756D702073776974636820747572EE
:100400006E6564204F4E0057617465722070756D83
:100410007020737769746368207475726E656420E8
:100420004F464600466C6F772073656E736F72207F
:1004300076616C75653A200057617465726C6576FB
:10044000656C3A2000C2B043202F2000456E7669CB
:10045000726F6E6D656E742073656E736F723A2085
:10046000004C696768742073656E736F72206C65E9
:1004700076656C3A2000416972207175616C69740F
:10048000793A2025730A004D6F697374757265207F
:1004900073656E736F72202564206C6576656C3AA7
:1004A0002025640A004D6F69737475726520736549
:1004B0006E736F72202564206C6576656C3A20251A
:1004C000640A004D6F6973747572652073656E738D
:1004D0006F72202564206C6576656C3A2025640A6D
:1004E000004D6F6973747572652073656E736F72FA
:1004F000202564206C6576656C3A2025640A002D01
:100500002D2D2D2D2D2D2D2D2D2D2D2D2D2D2D2D1B
:100510002D2D2D0053656E736F7220737461747589
:10052000733A0000003A0037003400310000003B0D
:100530000038003500320002020202020202020408
:100540000404040404040403030303030303030176
:100550000101010101010101020408102040800194
:10056000020408102040800102040810204080018D
:10057000020408102040800000000200000000007B
:10058000000000050400070000000000000000005B
:100590000000000000000000003900360033003089
:1005A000005265616420616E642063616368696EF6
:1005B00067204169725175616C6974792056616C6C
:1005C00075653A202573200A002A205374617274DD
:1005D000696E6720496F542D477265656E686F7547
:1005E000736520436F6E74726F6C6C6572207665F4
:1005F0007273696F6E20257320696E204669726D73
:1006000077617265206D6F64652025690A00576502
:10061000742076616C756520282564292069732013
:10062000686967686572207468616E2064727920F9
:1006300076616C756520282564292E2054686973BD
:1006400020636C6561726C792069732061206D692B
:100650007374616B652E2049676E6F72696E6720D7
:1006600063616C6962726174696F6E2076616C752A
:1006700065730A007810E91611241FBECFE5D8E093
:10068000DEBFCDBF11E0A0E6B0E0E2E2F3E402C0DD
:1006900005900D92A034B107D9F722E0A0E4B1E0B3
:1006A00001C01D92A836B207E1F713E0CBE3D3E017
:1006B00004C02197FE010E94E91DCA33D107C9F782
:1006C0000E94C8100C9484210C940000FB01A485A6
:1006D000B585ED91FC9111970190F081E02D682F87
:1006E000CD01099590E080E00895CF92DF92EF92DE
:1006F000FF92CF93DF93DC011796CC911797D0E050
:100700006111DC2F18962C91189730E0220F331FBF
:1007100029563A4F50E040E0F90185919491FC014F
:10072000F080BA0190E080E0EF2DEC23ED1310C0D3
:100730004F5F5F4F1D96CD90DD90ED90FC905097F0
:100740006C157D058E059F0538F36FEF7FEFCB01AC
:10075000DF91CF91FF90EF90DF90CF90089584309C
:1007600059F028F4813099F0823089F0089585306D
:1007700039F0873041F008958FB58F778FBD089598
:100780008FB58F7DFBCF85B58F7D85BD089583B7F0
:100790008F7D83BF0895CF93DF93282F30E0F90139
:1007A000E958FA4F8491F901E95AFA4FD491F901C5
:1007B000E95CFA4FC491CC23A1F081110E94AF03F0
:1007C000EC2FF0E0EE0FFF1FE956FA4FA591B49120
:1007D000EC91ED2381E090E009F480E0DF91CF918E
:1007E000089580E090E0FACF1F93CF93DF93282FF6
:1007F00030E0F901E958FA4F8491F901E95AFA4FCA
:10080000D491F901E95CFA4FC491CC23A9F0162FD9
:1008100081110E94AF03EC2FF0E0EE0FFF1FE35DAC
:10082000FA4FA591B4918FB7F894EC91111108C0CB
:10083000D095DE23DC938FBFDF91CF911F91089578
:10084000DE2BF8CFCF93DF9390E0FC01E95AFA4F0B
:100850002491895C9A4FFC0184918823C9F090E02F
:10086000880F991FFC01ED5DFA4FA591B491FC0131
:10087000E35DFA4FC591D49161110DC09FB7F89413
:100880008C91209582238C938881282328839FBF75
:10089000DF91CF910895623051F49FB7F8943C9165
:1008A000822F809583238C93E8812E2BEFCF8FB7F7
:1008B000F894EC912E2B2C938FBFEACF883020F048
:1008C000873108F487E188518770806487B9369A48
:1008D0003699FECF84B195B108958230910538F0F4
:1008E000880F991F880F991F05970197F1F70895B1
:1008F0003FB7F8948091BC019091BD01A091BE01D9
:10090000B091BF0122B708B600FE05C02F3F19F015
:100910000196A11DB11D3FBFBA2FA92F982F88277F
:10092000BC01CD01620F711D811D911D42E0660F5A
:10093000771F881F991F4A95D1F708958F929F922C
:10094000AF92BF92CF92DF92EF92FF924B015C0188
:100950000E9478046B017C010E9478046C197D0967
:100960008E099F09683E734081059105A8F321E037
:10097000821A9108A108B10888EEC80E83E0D81E3B
:10098000E11CF11C81149104A104B10429F7FF902A
:10099000EF90DF90CF90BF90AF909F908F90089591
:1009A0002FB7F8946091B8017091B9018091BA01A4
:1009B0009091BB012FBF08958F929F92AF92BF92EB
:1009C000CF92DF92EF92FF920F931F93CF93DF931B
:1009D000CDB7DEB7C054D1400FB6F894DEBF0FBE1E
:1009E000CDBF8C010E94D004F801C184D284E3847D
:1009F000F4849B01AC012C193D094E095F09690182
:100A00007A0130EDC31637E0D306E104F104A8F40F
:100A10008189C05CDE4F0FB6F894DEBF0FBECDBF3C
:100A2000DF91CF911F910F91FF90EF90DF90CF90CA
:100A3000BF90AF909F908F90089561877287838752
:100A400094871482138212821182108262E085815F
:100A50000E94220461E070E080E090E00E949E0429
:100A600061E0F80185810E94220460E0F80185813F
:100A70000E94F403F801868185518230E8F48CE409
:100A800094E00E946D0462E0F80185810E942204D6
:100A9000F801828990E00E946D04F89460E0C8013A
:100AA0000E9475036F3F7F4F8F4F9F4F61F4F80196
:100AB000118A789480E0ADCF64E170E080E090E04E
:100AC0000E949E04E0CF61E0C8010E9475036F3F61
:100AD0007F4F8F4F9F4F59F39E012F5F3F4F7901FB
:100AE0005E013FEBA31A3EEFB30A670160E0C80165
:100AF0000E947503F601608371838283938361E0B2
:100B0000C8010E947503F601648375838683978309
:100B1000F8E0CF0ED11CCA14DB0441F7789430E022
:100B200020E0F70180809180A280B38044815581CC
:100B300066817781FFEF8F169F06AF06BF0631F003
:100B40004F3F8FEF58076807780719F4F801118AAB
:100B5000B1CFF90183E0F595E7958A95E1F7E00FCC
:100B6000F11F8081880F84169506A606B706F0F05F
:100B700080832F5F3F4FF8E0EF0EF11C28323105E4
:100B800081F6F801448120818181280F3327331FAA
:100B90008281280F311D8381820F932F911D992708
:100BA0004817190699F681E0818B33CF8160E0CF39
:100BB000CF93DF93C0919101D09192018F818F5F8C
:100BC0008F830E94D004688779878A879B87DF910B
:100BD000CF9108950895AF92BF92CF92DF92EF9296
:100BE000FF920F931F93CF93DF936C017B018B01D7
:100BF000040F151FEB015E01AE18BF08C017D10727
:100C000059F06991D601ED91FC910190F081E02DB0
:100C1000C6010995892B79F7C501DF91CF911F9105
:100C20000F91FF90EF90DF90CF90BF90AF9008951D
:100C3000FC01538D448D252F30E0842F90E0821BE2
:100C4000930B541710F0CF96089501970895FC0167
:100C5000918D828D981761F0A28DAE0FBF2FB11DBF
:100C60005D968C91928D9F5F9F73928F90E0089517
:100C70008FEF9FEF0895FC01918D828D981731F0D1
:100C8000828DE80FF11D858D90E008958FEF9FEF25
:100C90000895FC01918D228D892F90E0805C9F4FFB
:100CA000821B91098F739927089581EC91E00E942E
:100CB000490621E0892B09F420E0822F089580E085
:100CC00090E0892B29F00E94550681110C940000B8
:100CD0000895FC01A48DA80FB92FB11DA35ABF4FD1
:100CE0002C91848D90E001968F739927848FA6892B
:100CF000B7892C93A089B1898C9182748C93938D40
:100D0000848D981306C00288F389E02D80818F7D41
:100D100080830895EF92FF920F931F93CF93DF93F9
:100D2000EC0181E0888F9B8D8C8D981319C0E88928
:100D3000F989808185FF14C09FB7F894EE89FF89F7
:100D40006083E889F9898081827480839FBF81E014
:100D500090E0DF91CF911F910F91FF90EF90089558
:100D6000F62E0B8D10E00F5F1F4F0F731127E02E33
:100D70008C8D8E110CC00FB607FCFACFE889F9896B
:100D8000808185FFF5CFCE010E946906F1CFEB8D02
:100D9000EC0FFD2FF11DE35AFF4FF0829FB7F8943F
:100DA0000B8FEA89FB8980818062CFCF0F931F93DD
:100DB000CF93DF938C01D0E0C0E0F801EC0FFD1F72
:100DC0006491662341F081EC91E00E948A06892BB0
:100DD00011F02196F2CFCE01DF91CF911F910F91AB
:100DE0000895CF93DF93EC01888D8823B9F0AA8909
:100DF000BB89E889F9898C9185FD03C0808186FDD6
:100E00000DC00FB607FCF7CF8C9185FFF2CF808124
:100E100085FFEDCFCE010E946906E9CFDF91CF912A
:100E200008952F923F924F925F926F927F928F928E
:100E30009F92AF92BF92CF92DF92EF92FF920F9369
:100E40001F93CF93DF938C01FC01C380D480F12CDE
:100E5000E12C81809280B12CA12C80810E945E04C3
:100E6000BC01990F880B990B0E94121C1B012C01CD
:100E7000F8016381748190E080E00E94101C3B01C6
:100E8000D82FC92F9B01482F592FB101C2010E94B1
:100E90000B1C87FD16C0F8016181728190E080E033
:100EA0000E94101C3B01D82FC92F9B01482F592F9E
:100EB000B101C2010E945C1F18161CF03101D42D33
:100EC000C52DB3018D2F9C2F0E94E51E9B01AC0107
:100ED000281939094A095B09A4E6B0E00E944E1DB1
:100EE000A7019601281939094A095B090E942F1D9B
:100EF000822FDF91CF911F910F91FF90EF90DF90A4
:100F0000CF90BF90AF909F908F907F906F905F90A9
:100F10004F903F902F90089585ED86BF06B604FC54
:100F2000FDCF10928B01089520916701260F332782
:100F3000331F21323105ECF420918B01FC0190E04C
:100F400080E0243069F082E00895A091670121914A
:100F5000AC01495B5E4FA40FB52FB11D2C930196D8
:100F6000861798F380916701680F6093670180E0AE
:100F7000089581E0089508958FEF9FEF08958FEF12
:100F80009FEF08958091460190E091958195910998
:100F90000895CF93DF93CB01EA01642F0E94940759
:100FA000CE01DF91CF910895CF93DF931F92CDB7FC
:100FB000DEB7698361E0CE0101960E94940781E06B
:100FC00090E00F90DF91CF91089590E080E0089538
:100FD000CF93DF93EC018D810E945E04893E23E074
:100FE00092074CF024E62C832E81211102C021E0CF
:100FF0002E831F8218869C01255F3140233F31409C
:1010000060F482E38C838F81811102C081E08F8341
:101010001E821886DF91CF910895843F9140D4F7C6
:101020001C828885811102C081E088871F821E8210
:10103000F1CFFC0101900020E9F73197AF01481B87
:10104000590BBC0181EC91E00C94EB058F929F92BF
:10105000AF92BF920F931F93CF93DF93CDB7DEB7BD
:10106000A1970FB6F894DEBF0FBECDBF19A24230D4
:1010700008F44AE08E010F5D1F4F842E912CB12C95
:10108000A12CA50194010E94901DE62FB901CA016F
:10109000EA30F4F4E05DD801EE938D01232B242B8C
:1010A000252B79F790E080E0109719F0CD010E9490
:1010B0001908A1960FB6F894DEBF0FBECDBFDF9121
:1010C000CF911F910F91BF90AF909F908F900895F7
:1010D000E95CE1CFCF92DF92EF92FF926B017C014E
:1010E0008EE491E00E94D6064AE0C701B601F7FE01
:1010F0000DC06DE281EC91E00E948A066627772799
:10110000CB016C197D098E099F094AE00E942608CF
:1011100089E990E0FF90EF90DF90CF900C94190850
:10112000CF93DF930E94D606EC0189E990E00E94FC
:1011300019088C0F9D1FDF91CF910895CF93DF93F6
:10114000D0E0C0E0009719F00E941908EC0189E98D
:1011500090E00E9419088C0F9D1FDF91CF91089598
:101160004F925F926F927F928F929F92AF92BF92B7
:10117000CF92DF92EF92FF920F931F93CF936B0169
:101180007C01742EAC019B010E94611F882399F0A1
:101190008CE990E0CF911F910F91FF90EF90DF903D
:1011A000CF90BF90AF909F908F907F906F905F9007
:1011B0004F900C94190846015701E894B7F82FEFA7
:1011C0003FEF4FE75FE7C501B4010E94611F811146
:1011D0000DC02FEF3FEF4FE75FE7C501B4010E945D
:1011E0000B1C18161CF480EA90E0D4CF2FEF3FEFD1
:1011F0004FE75FE4C701B6010E945C1F18161CF49C
:1012000084EA90E0C7CF2FEF3FEF4FE75FECC701D5
:10121000B6010E940B1C87FDF3CF20E030E0A9014E
:10122000C701B6010E940B1C10E000E087FF0AC056
:101230006DE281EC91E00E948A068C01F7FAF0944D
:10124000F7F8F094C0E060E070E080E09FE37C1687
:1012500041F020E030E040E251E40E94731ECF5F95
:10126000F6CFA70196010E94F01D2B013C010E94C0
:10127000EC1E4B015C014AE00E9426087C01E00E56
:10128000F11ECC23C1F1C501B4010E94101C9B01C9
:10129000AC01C301B2010E94EF1D4B015C016EE283
:1012A00081EC91E00E948A06E80EF91EC15018F107
:1012B00020E030E040E251E4C501B4010E94711C1D
:1012C0002B013C010E94EC1E4B01B12CA12C4AE0E9
:1012D000C501B4010E942608E80EF91EC501B4013B
:1012E0000E94101C9B01AC01C301B2010E94EF1DC2
:1012F0004B015C01DBCFC701CF911F910F91FF9094
:10130000EF90DF90CF90BF90AF909F908F907F90A5
:101310006F905F904F900895CF93DF93CDB7DEB776
:101320002E970FB6F894DEBF0FBECDBF86E693E0D2
:101330009A8789871C861B8682E08C8381EC91E0EA
:101340009E878D87AE01495E5F4F68EA70E0CE01EF
:1013500001960E9456172E960FB6F894DEBF0FBE68
:10136000CDBFDF91CF910895CF93DF932091C0013E
:101370002223E1F0FC01C081D1818EEA90E09F93AD
:101380008F9388EA90E09F938F9381EC91E09F93F5
:101390008F930E948C090F900F900F900F900F90D9
:1013A0000F90CE01DF91CF910C949E08DF91CF91E9
:1013B0000895CF93DF93CDB7DEB72E970FB6F8948D
:1013C000DEBF0FBECDBF86E693E09A8789871C8675
:1013D0001B8682E08C8381EC91E09E878D87AE0135
:1013E000495E5F4F6D897E89CE0101960E941B1771
:1013F0002E960FB6F894DEBF0FBECDBFDF91CF9112
:1014000008950F931F93CF93DF93CDB7DEB7C85ED8
:10141000D3400FB6F894DEBF0FBECDBF182F092FF3
:101420009B0144EB50E068EE73E0CE0101960E9410
:1014300058210F931F9388EA90E09F938F9381EC3C
:1014400091E09F938F930E948C09CE0101960E9498
:1014500019080F900F900F900F900F900F90C85198
:10146000DC4F0FB6F894DEBF0FBECDBFDF91CF913A
:101470001F910F910895CF93DF93CDB7DEB7809181
:101480006800823038F0BE01695F7F4F8DEC90E0DC
:101490000E94010ADF91CF9108950F931F93CF937C
:1014A000DF93EC0188819981009759F02A813B8173
:1014B0002617370730F081E0DF91CF911F910F9110
:1014C00008958B016F5F7F4F0E948B20009759F02A
:1014D000998388831B830A832C813D81232B59F7B1
:1014E000FC011082E8CF80E0E7CFCF93DF93EC01DF
:1014F00088819981009711F00E9402201982188238
:101500001D821C821B821A82DF91CF910895EF9277
:10151000FF920F931F93CF93DF93EC017B018A011E
:10152000BA010E944D0A81110BC0CE010E94750ABA
:10153000CE01DF91CF911F910F91FF90EF90089511
:101540001D830C83B701888199810E945121F0CFBE
:10155000EF92FF920F931F93CF93DF93CDB7DEB738
:10156000A1970FB6F894DEBF0FBECDBF7C01CB01B3
:10157000BA01F7011182108213821282158214823D
:101580008E010F5F1F4F22E044E00E94ED1600978E
:10159000C9F0FC0101900020E9F73197AF01481B29
:1015A000590BBC01C7010E94870AA1960FB6F89497
:1015B000DEBF0FBECDBFDF91CF911F910F91FF9086
:1015C000EF900895C7010E94750AEFCFCF93DF9384
:1015D000EC0110925F0210925E0210926102109272
:1015E0006002109263021092620250E040E06BE9E8
:1015F00070E08EE592E00E94870A82E0CE35D8073F
:1016000099F0688179816115710541F04C815D81A6
:101610008EE592E0DF91CF910C94870A8EE592E0FF
:10162000DF91CF910C94750ADF91CF910895FC0161
:1016300080819181009711F00C9402200895EF921F
:10164000FF920F931F93CF93DF93EC018B011982CD
:1016500018821B821A821D821C82CB010E941217E3
:101660007C01BC01CE010E944D0A811109C0CE014E
:10167000DF91CF911F910F91FF90EF900C94750A1D
:10168000FD82EC82B80188819981DF91CF911F9111
:101690000F91FF90EF900C940B17CF93DF9300D036
:1016A00000D000D0CDB7DEB761E0FC0185810E949B
:1016B000F4036BED71E0CE0101960E941F0BCE0189
:1016C00001960E94B409CE0101960E94170B26963E
:1016D0000FB6F894DEBF0FBECDBFDF91CF91089556
:1016E0008F929F92AF92BF92CF92DF92EF92FF9232
:1016F0000F931F93CF93DF9300D000D000D0CDB7CE
:10170000DEB78C01DC0153964D915D916D917C911A
:10171000569757968D919D910D90BC91A02D48178D
:1017200059076A077B0709F466C0F8018784908827
:10173000A188B2880E94D0046B017C01D8011E965A
:101740006C9170E088EE93E00E94D51DCB01770F7D
:10175000AA0BBB0BC81AD90AEA0AFB0A8C149D040F
:10176000AE04BF0408F047C061E0F80182850E9422
:10177000F4030E94D004D8011F966D937D938D933E
:101780009C93529753964D915D916D917C91569794
:1017900057968D919D910D90BC91A02DFF24F394AF
:1017A00084179507A607B70714F0FF24FA94F801E9
:1017B00085858F0D87FF82C083E08587D8011D96C0
:1017C0008C91813009F4A3C00CF07EC0882309F409
:1017D00087C08F2DFF0C990BAA0BBB0BF801478913
:1017E000508D618D728D840F951FA61FB71F878B3B
:1017F000908FA18FB28FD8011C968C911C9781116C
:101800004AC053964D915D916D917C915697579634
:101810008D919D910D90BC91A02D481759076A0795
:101820007B07C9F581E0F801848760E086810E942A
:10183000F40360E0D80117968C910E94F40360E0F5
:10184000F80180850E94F40360E0D80119968C911C
:101850000E94F40360E0F80182850E94F403D8013D
:101860001296ED91FC911397309739F057966D9140
:101870007D918D919C915A9709956DE771E0CE010C
:1018800001960E941F0BCE0101960E94B409CE0161
:1018900001960E94170B26960FB6F894DEBF0FBE76
:1018A000CDBFDF91CF911F910F91FF90EF90DF900F
:1018B000CF90BF90AF909F908F900895843014F494
:1018C00085877CCF15867ACF823041F1833009F04D
:1018D00080CF61E0F80186810E94F40360E024C0BB
:1018E00061E0F80186810E94F40360E0D801179658
:1018F0008C910E94F40361E0F80180850E94F4035A
:1019000060E0D80119968C910E94F40362CF60E0E8
:10191000F80186810E94F40361E0E8CF60E0F801FD
:1019200086810E94F40361E0D80117968C910E9491
:10193000F40360E0F80180850E94F40361E0E1CFE8
:10194000CF92DF92EF92FF920F931F93CF93DF938B
:10195000EC010E94D0041F81CE8CDF8CE8A0F9A09E
:101960006C197D098E099F090E94101C9B01AC0116
:1019700060E070E08AE794E40E94731E6B017C01D2
:10198000612F70E090E080E00E94121C9B01AC018E
:10199000C701B6010E94711C2C893D894E895F895F
:1019A0000E94731E688F798F8A8F9B8F0E94D0044C
:1019B0006E8F7F8F88A399A32EEA37E445E851E420
:1019C000688D798D8A8D9B8D0E94711C0E945C1E92
:1019D0000E94EC1E7D8F6C8F1F820E851F852889CB
:1019E000398968017901C60ED71EE11CF11CC701B7
:1019F000B6016E877F87888B998B2C81211118C047
:101A00000A891B8930E020E060177107820793077D
:101A100078F021E02C83ED81FE81309749F0DF9151
:101A2000CF911F910F91FF90EF90DF90CF9009948D
:101A3000DF91CF911F910F91FF90EF90DF90CF90AA
:101A400008950C94A00C0F931F93CF93DF93CDB701
:101A5000DEB7C85ED3400FB6F894DEBF0FBECDBF71
:101A6000182F092F9A01AB0168EE73E0CE010196A1
:101A70000E942A170F931F9388EA90E09F938F93F9
:101A800081EC91E09F938F930E948C09CE01019687
:101A90000E9419080F900F900F900F900F900F90C9
:101AA000C851DC4F0FB6F894DEBF0FBECDBFDF913B
:101AB000CF911F910F910895CF93DF93CDB7DEB7EC
:101AC000AE01495F5F4F6EE076E082ED90E00E94EC
:101AD000230DDF91CF910895CF93DF93CDB7DEB77C
:101AE00080916800823048F0AE01495F5F4F69EC39
:101AF00075E08DEC90E00E94230DDF91CF91089569
:101B0000CF93DF93CDB7DEB78091C001882349F032
:101B1000AE01495F5F4F61EA75E08EEA90E00E9496
:101B2000230DDF91CF910895CF92DF92EF92FF9234
:101B30000F931F93CF93DF9300D000D000D0CDB789
:101B4000DEB78C01FC0185810E94CB03892B49F50E
:101B50000E94D004F801C284D384E484F5846C1913
:101B60007D098E099F09603F794482409105C8F044
:101B7000C8010E944D0B0E94D004F8016287738750
:101B80008487958726960FB6F894DEBF0FBECDBF2B
:101B9000DF91CF911F910F91FF90EF90DF90CF9049
:101BA0000895F80185810E94CB03019759F70E949F
:101BB000D004F801C284D384E484F5846C197D09CF
:101BC0008E099F096033754781059105D8F2F801A8
:101BD00084810E945E04BC01990F880B990B0E94BE
:101BE000121C20E030EC4FE754E40E94731E20E00A
:101BF00030E048EC52E40E94711CAB01BC01F801DA
:101C000046875787608B718BCE0101960E94A80A88
:101C10008A818F9389818F9381EA95E09F938F9337
:101C20000E94800DCE0101960E94170B60E0F80122
:101C300085810E94F4036CEB71E0CE0101960E9455
:101C40001F0BCE0101960E94B409CE0101960E949D
:101C5000170B0F900F900F900F9094CF1F920F9231
:101C60000FB60F9211242F933F938F939F93AF93AF
:101C7000BF938091B8019091B901A091BA01B09140
:101C8000BB013091B70123E0230F2D3768F126E81F
:101C9000230F0296A11DB11D2093B7018093B801B7
:101CA0009093B901A093BA01B093BB018091BC019C
:101CB0009091BD01A091BE01B091BF010196A11DFF
:101CC000B11D8093BC019093BD01A093BE01B09360
:101CD000BF01BF91AF919F918F913F912F910F9035
:101CE0000FBE0F901F9018950196A11DB11DD4CF66
:101CF0001F920F920FB60F9211242F933F934F9381
:101D00005F936F937F938F939F93AF93BF93EF9363
:101D1000FF93E0916200F09163000995FF91EF91CC
:101D2000BF91AF919F918F917F916F915F914F91F3
:101D30003F912F910F900FBE0F901F9018951F92FB
:101D40000F920FB60F9211242F933F934F935F93EF
:101D50006F937F938F939F93AF93BF93EF93FF9373
:101D6000E0916000F09161000995FF91EF91BF91C2
:101D7000AF919F918F917F916F915F914F913F9123
:101D80002F910F900FBE0F901F9018951F920F92DA
:101D90000FB60F9211242F933F934F935F936F933E
:101DA0007F938F939F93AF93BF93EF93FF9381ECB8
:101DB00091E00E946906FF91EF91BF91AF919F91D1
:101DC0008F917F916F915F914F913F912F910F90E4
:101DD0000FBE0F901F9018951F920F920FB60F9283
:101DE00011242F938F939F93EF93FF93E091D10151
:101DF000F091D2018081E091D701F091D80182FD6C
:101E00001BC090818091DA018F5F8F732091DB017D
:101E1000821741F0E091DA01F0E0EF53FE4F958F29
:101E20008093DA01FF91EF919F918F912F910F9005
:101E30000FBE0F901F9018958081F4CF1F920F92C4
:101E40000FB60F9211240F931F932F933F934F932D
:101E50005F936F937F938F939F93AF93BF93EF9312
:101E6000FF93CF93DF93CDB7DEB72697DEBFCDBF0D
:101E7000009193011091940160E0F80181810E942A
:101E8000F403F801108264E971E0CE0101960E942A
:101E90001F0BCE0101960E94B409CE0101960E944B
:101EA000170B26960FB6F894DEBF0FBECDBFDF919D
:101EB000CF91FF91EF91BF91AF919F918F917F91C2
:101EC0006F915F914F913F912F911F910F910F90C3
:101ED0000FBE0F901F9018951F920F920FB60F9282
:101EE00011242F933F934F935F936F937F938F931F
:101EF0009F93AF93BF93EF93FF9381B1887F803619
:101F000009F44AC0F0F5883209F4A1C018F580310F
:101F100009F497C0B8F4882309F4E7C0883009F4BD
:101F200090C0FF91EF91BF91AF919F918F917F9161
:101F30006F915F914F913F912F910F900FBE0F9036
:101F40001F901895883109F482C0803251F7809330
:101F50008A0114C0803409F492C040F48033B9F38C
:101F60008833F9F680938A0185ECA2C0803509F4A4
:101F70007DC0883509F48BC0883499F60E948C079F
:101F8000D0CF883909F481C030F5883729F050F472
:101F9000883611F0803729F683E080938B01109208
:101FA000890152C0883809F470C0803919F080382E
:101FB00009F0B7CF80918901803208F066C0E091C6
:101FC000890181E08E0F8093890183B1F0E0E759A8
:101FD000FE4F808339C0803B39F0D0F4803A09F459
:101FE0006BC0883A09F09DCF84E080938B011092FA
:101FF000680110926701F0E0E0E0099580916701C7
:1020000081110FC081E0809367011092470109C0E0
:10201000803C09F4A9CF883C09F4A6CF883B09F09D
:1020200080CFE091680181E08E0F80936801F0E03D
:10203000E95BFE4F808183B99091680180916701CF
:1020400022C08091900183B985EC86BF6ACF9091C0
:102050008F0180918E01981718F5E0918F0181E032
:102060008E0F80938F01F0E08081EDCFE0918F01A2
:1020700081E08E0F80938F0183B1F0E08083909197
:102080008F0180918E019817F8F285E8DECFE091FC
:102090008F0181E08E0F80938F0183B1F0E0808308
:1020A00080918D0181116ACF81E080938C0184EA57
:1020B00086BF10928B0135CF85EC86BF10928B01C5
:1020C00080918901803230F4E0918901F0E0E75994
:1020D000FE4F10826091890170E089E691E0F0E0A6
:1020E000E0E00995109289011CCF10928A0146CF39
:1020F000CF93DF9300D000D000D0CDB7DEB7E1ECB6
:10210000F1E01382128288EE93E0A0E0B0E08483D5
:102110009583A683B7838BE890E09183808380E4E6
:1021200090E09587848729E230E0378726872BE285
:1021300030E0318B208B2AE230E0338B228B958B81
:10214000848B8CE290E0978B868B118E128E138E8F
:10215000148E1A8219821C821B821E821D824EE0FE
:1021600050E06AED70E0CE0101960E94870ACE0130
:1021700001960E94E60ACE0101960E94170B269650
:102180000FB6F894DEBF0FBECDBFDF91CF9108959B
:10219000CF93DF9300D000D000D0CDB7DEB77894D6
:1021A00083B7836083BF83B7886483BF89B7816047
:1021B00089BF92E09EBD8EB581608EBD8FB5816076
:1021C0008FBD85B5846085BD85B5806485BD87E894
:1021D00086B91AB8E091D101F091D2019083E091D3
:1021E000CD01F091CE011082E091CF01F091D001AC
:1021F00080E180831092D901E091D501F091D60160
:1022000086E88083E091D301F091D40180818869D0
:102210008083E091D301F091D40180818F7D808310
:102220001092C00189EE90E09F938F9384EB90E031
:102230009F938F930E943B0A81E08093C00184E0CA
:102240008093680083E090E00E94661F2EE532E0F4
:10225000DC0112963C932E9311972EE12C9360E0B3
:102260008EE10E9422048EE10E945E040F900F9086
:102270000F900F90813092400CF4EFC281E0282F34
:1022800030E030936700209366001F928F938DEEAD
:1022900090E09F938F9389EC95E09F938F930E949A
:1022A0006C0D109168000F900F900F900F900F9091
:1022B0000F90123020F086E293E00E94D6068091C3
:1022C000660090916700019709F0E5C21230C0F0F6
:1022D0008DEC90E09F938F9388EA90E09F938F938B
:1022E00081EC91E09F938F930E948C0989EF91E09C
:1022F0000E9490080F900F900F900F900F900F90EA
:1023000089E090E00E94661F8C018FE790E0F80161
:10231000918380831482168217821086AEE5EA2E9E
:10232000A2E0FA2EF382E2828FE1858360E00E94D0
:1023300022041093B6010093B50187E090E00E945B
:10234000661F6C0185E190E0D60116969C938E93F2
:1023500015971296FC92EE92119712E0B12EBC9254
:1023600083E190E00E94661F8C01FC01B58285E14B
:102370008683E9E5F5E0E491D8011796EC93179789
:10238000E9E3F5E0E4911896EC9380E89EE3A0E0A1
:10239000B0E0F80185879687A787B08BD6011496A1
:1023A0001C930E931397D092A201C092A10162E0F8
:1023B00082E00E9422040E94D004605D774081097F
:1023C0009109F801618772878387948787E3828BFD
:1023D00087E090E00E94661F8C0188EF93E0D801AF
:1023E00011969C938E9388EC90E013969C938E9319
:1023F00012971696FC92EE92159789E114968C939B
:1024000060E00E9422041093A4010093A3018DE0D8
:1024100090E00E94661F8C01FC01108280E395E72A
:10242000A0E0B0E083839483A583B68387839087FD
:10243000A187B287F486E38683E090E0928381836C
:10244000109394010093930161E00E94220460E0E4
:10245000D80111968C910E94F4031093B40100935B
:10246000B3018FE090E0A0E0B0E0F80187839087AF
:10247000A187B28783E290E00E94661F8C0189E702
:1024800090E0D80111969C938E9314961C92149709
:1024900016961C921E92159717961C921797F80184
:1024A000108611861286138688EE93E095878487BE
:1024B0001E961D921D921D921C92519784E690E0EB
:1024C00053969C938E93529780E090E0A4EBB2E4F5
:1024D000848B958BA68BB78B108E118E128E138EDC
:1024E000158E148E168E178E10A211A2F382E28220
:1024F00088E082A360E00E9422041093920100937E
:102500009101D80192968C91823009F4B8C18A3039
:1025100009F0A5C188ED95E090936100809360007B
:1025200085B78C7F826085BF8BB780648BBF10932B
:10253000A00100939F01F801178216861786108A62
:10254000118A1482C8010E94A00C8BE190E00E94C5
:10255000661F8C0183E790E0F801918380831382EA
:102560001282148615868AE086871786108A118A59
:10257000128A138A148A158A168A178A108E118E67
:10258000128E97E0968395E0978396E0908794E08B
:10259000918791E1928783878EE592E0958384838A
:1025A00061E087E00E94220461E0F80187810E94D7
:1025B000220461E0D80118968C910E94220461E007
:1025C000F80181850E94220462E0D8011B968C915B
:1025D0000E94220461E0F80182850E94220460E0EA
:1025E000D8011A968C910E94F4030E94D004F8013D
:1025F0006787708B818B928B10939A01009399015E
:102600008AE698E0938382838AEF86878CE09EEF48
:10261000AFEFBFEF838B948BA58BB68B8789908DA3
:10262000A18DB28D8C309E4FAF4FBF4F19F0D801A6
:102630001C961C9201EC11E097E8C92E94E0D92E6B
:1026400026E7A22E24E0B22E34E6832E912C809130
:102650006600909167008130910509F009C2E09011
:10266000B301F090B401D7018C91E091B501F091E4
:10267000B6019481933308F4DFC1811140C061E059
:1026800011968C910E94F403E2EDF0E0FF93EF933A
:1026900048EA50E05F934F931F930F930E948C0979
:1026A00084EF90E00E949E08F8941FBC8DE08EBDE0
:1026B000D70117962D913C91E8E0FDE32E9FC001D4
:1026C0002F9F900D3E9F900D11249BBD8ABD89B711
:1026D000806189BF78946BEE73E0CE0101960E9411
:1026E0001F0BCE0101960E94B409CE0101960E94F3
:1026F000170B0F900F900F900F900F900F9081E09D
:10270000D7018C938091990190919A01009739F0AB
:10271000DC01ED91FC910190F081E02D09950E9482
:10272000D004685E734081099109409095015090F2
:1027300096016090970170909801461657066806BA
:10274000790648F50E94D004609395017093960134
:102750008093970190939801693E7340810591059C
:10276000D0F080919F019091A001009739F0DC0199
:10277000ED91FC910190F081E02D09958091B501DA
:102780009091B601009739F0DC01ED91FC91019038
:10279000F081E02D09958091C001882309F48AC257
:1027A0000E94D004693E73408105910508F482C2FD
:1027B0000E94D004685E7340810991094090AF0186
:1027C0005090B0016090B1017090B201461657066A
:1027D0006806790608F06EC20E94D0046093AF01CB
:1027E0007093B0018093B1019093B20184E195E0C0
:1027F0000E94900880916600909167008130910559
:1028000009F075C281E694E00E94D606E090A3012B
:10281000F090A401F70184810E945E04D701129612
:102820006D917C9113976817790708F050C14D910D
:102830005C918417950778F49C01261B370BCA011D
:10284000861B970BB4010E94C11DC9010E94C11DC6
:10285000653608F43DC164E63BC182E010CD8B30A3
:1028600009F065CE88ED95E0909363008093620057
:1028700085B7837F886085BF8BB7806857CE88ED2A
:1028800095E0909365008093640084B78F7B84BF4C
:102890008BB780624BCE1230C0F08DEC90E09F93EE
:1028A0008F9388EA90E09F938F9381EC91E09F93C0
:1028B0008F930E948C0988EA92E00E9490080F9002
:1028C0000F900F900F900F900F9087E090E00E9474
:1028D000661F8C014EE5E42E42E0F42EFC01F682E8
:1028E000E5828BE1808360E00E9422045AEAC52ED3
:1028F000DD24D394D8011496DC92CE9213976DE127
:10290000862E63E0962E12969C928E9211971093CB
:10291000AE010093AD0187E090E00E94661F8C013C
:10292000FC01F682E5828AE1808360E00E94220455
:10293000D8011496DC92CE92139770E3A72E73E021
:10294000B72E1296BC92AE9211971093AC010093E1
:10295000AB0187E090E00E94661F8C01FC01F682CB
:10296000E58289E1808360E00E942204D801149608
:10297000DC92CE92139712969C928E92119710939E
:10298000AA010093A90187E090E00E94661F8C01D4
:10299000FC01F682E58288E1808360E00E942204E7
:1029A000D8011496DC92CE9213971296BC92AE92F6
:1029B00011971093A8010093A70182E190E00E9473
:1029C000661F8C0185E890E0F80191838083F38293
:1029D000E2828FE184838AE085830E94D004D8015B
:1029E00016966D937D938D939C9319970E94D004B6
:1029F000F801628773878487958761E085810E94EB
:102A00002204C8010E944D0B1093A6010093A5015A
:102A100084E090E00E94661FFC01F182E08285E084
:102A2000828386E0838361E085E00E94220461E086
:102A300086E00E942204FECD8130B9F467E074E0A4
:102A4000CE0101960E941F0BCE0101960E94B4098F
:102A5000CE0101960E94170B60E0F70181810E9470
:102A6000F4031EBC89B78F7E89BFD7011C924ACE62
:102A7000029709F090CE8091A5019091A601009750
:102A800039F0DC01ED91FC910190F081E02D099588
:102A90000E94D004685E73408109910940909B01B7
:102AA00050909C0160909D0170909E0146165706C3
:102AB0006806790608F06FCE0E94D00460939B01EF
:102AC00070939C0180939D0190939E0164CE60E081
:102AD00070E090E080E04AE00E94260889E990E0FA
:102AE0000E9419088CE494E00E94D606E091A101AE
:102AF000F091A201E380F480C7010E94DC048823E6
:102B000041F0F70186818C3009F467C038F48B30CE
:102B1000E1F060E070E080EC9FE73EC085518230DC
:102B2000C0F77280672D70E0762F662766277F7763
:102B30008381682B90E080E00E94101C2DEC3CEC1F
:102B40004CEC5DE30E94711C63C0628170E090E018
:102B500080E00E94101C2B013C01F701F380F7FE7E
:102B60000AC0AC019B0160E070E080E89FEB0E942E
:102B7000EF1D2B013C016F2D6F7070E090E080E045
:102B80000E94121C2DEC3CEC4CEC5DE30E94711C8D
:102B9000A30192010E94F01D42E00E94B00885E46A
:102BA00094E00E94D606E091A101F091A201E38099
:102BB000F480C7010E94DC04882351F0F70186816C
:102BC0008B3030F08D3040F18551823008F47FC079
:102BD00060E070E080EC9FE73AC07280672D70E0A3
:102BE00090E080E00E94101C1B012C01F701638122
:102BF0006F7070E090E080E00E94121C2DEC3CECC5
:102C00004CEC5DE30E94711CA20191010E94F01D39
:102C100077FEC2CF9058C0CF618170E090E080E035
:102C20000E94121C2DEC3CEC4CEC5DE30E94711CEC
:102C30002B013C01F701608170E090E080E00E9490
:102C4000121C9B01AC01C301B2010E94F01D42E0C5
:102C50000E94B0088DE391E00E949E0888E394E012
:102C60000E94D606E091B501F091B601648170E052
:102C700090E080E04AE00E94260889E990E00E9406
:102C8000190884E294E00E94D606E0919F01F09139
:102C9000A0016685778580899189882799274AE0F0
:102CA0000E94260889E990E00E9419088FEF94E0BD
:102CB0000E94900880E090E0892B09F4C8CC0E9423
:102CC0005506882309F4B8CC0E940000B5CC608179
:102CD000718176276727762790E080E00E94101C9C
:102CE0002DEC3CEC4CEC5DE30E94711CB0CF0297E4
:102CF000E9F68091AD019091AE010E9411071F92FB
:102D00008F931F9281E08F93E1EEF4E0FF93EF93B6
:102D10001F930F930E94D9098091AB019091AC0150
:102D20000E9411071F928F931F9282E08F9343ECB2
:102D300054E05F934F931F930F930E94D9098091A2
:102D4000A9019091AA010E9411071F928F931F92CF
:102D500083E08F93A5EAB4E0BF93AF931F930F93E3
:102D60000E94D9098091A7019091A8010E941107A2
:102D70001F928F931F9284E08F93DF92CF921F93C5
:102D80000F930E94D9090FB6F894DEBF0FBECDBFD6
:102D9000E091A501F091A60146855785608971896A
:102DA000CE0101960E94A80A8A818F9389818F9310
:102DB000BF92AF921F930F930E94D909CE01019643
:102DC0000E94170B0F900F900F900F900F900F9085
:102DD0006DCF8EE592E00C94170BEF920F931F933B
:102DE000CF93DF93E80134E047FD34E1042E000C7B
:102DF000550B57FF03C0519541955109E32E022F02
:102E0000242FAE010E943019CE01DF91CF911F9186
:102E10000F91EF900895FB01DC0105900D920020C9
:102E2000E1F70895FC0105900020E9F78095909561
:102E30008E0F9F1F0895CF93DF93EC018B818860E5
:102E40008B83CE010E9456172B81277F2B83DF9126
:102E5000CF910895AEE0B0E0E0E3F7E10C94671D98
:102E60008C01FA018EE08C831A83098377FF02C0FC
:102E700060E070E8615071097E836D83A901BF0134
:102E8000CE0101960E9456174D815E8157FD0AC002
:102E90002F813885421753070CF49A01020F131F34
:102EA000F80110822E96E4E00C94831DABE0B0E0B4
:102EB000ECE5F7E10C94591D7C013B018A01FC0112
:102EC00017821682838181FFC8C1CE0101965C0101
:102ED000F7019381F30193FD859193FF81913F0168
:102EE000882309F453C1853239F493FD859193FF0A
:102EF00081913F01853229F4B70190E00E947D1B4A
:102F0000E7CF912C212C312CFFE1F31538F08B32D7
:102F100011F190F4803209F1833229F137FC3CC081
:102F200020ED280F2A3050F536FE20C08AE0989E0A
:102F3000200D1124922E06C08D3291F0803371F74E
:102F4000689430F8F30193FD859193FF81913F01DF
:102F50008111DACF21C0689431F8689432F8F2CF49
:102F6000689433F8EFCF689434F8ECCFEAE02E9E03
:102F7000200D1124222E689435F8E4CF8E3229F4E6
:102F800036FC04C1689436F8DDCF8C3619F46894A9
:102F900037F8D8CF8836B1F2982F9F7D955493306B
:102FA000E0F08336A1F18337C1F1833509F063C0C6
:102FB0002801F2E04F0E511CF801C080D180692D2C
:102FC00070E036FC02C06FEF7FEFC6010E94671B06
:102FD0004C01689437F882010AC00C5F1F4FFFE371
:102FE000F98388248394912C6501E89437F833FEA3
:102FF0002DC0522C8114910471F5552009F468CF2D
:10300000B70180E290E00E947D1B5A94F6CFF80150
:10301000808189830E5F1F4FE4CF2801F2E04F0EBD
:10302000511CF801C080D180692D70E036FC02C0CF
:103030006FEF7FEFC6010E94721B4C018201D5CF5A
:10304000B70180E290E00E947D1B2A9428141904A5
:1030500009F0B0F7CECFF60137FC859137FE8191AC
:103060006F01B70190E00E947D1B51105A94F1E06E
:103070008F1A9108BFCF843619F0893609F077C0CE
:10308000F80137FE6BC060817181828193810C5F92
:103090001F4FF32DFF763F2E97FF09C09095809527
:1030A000709561957F4F8F4F9F4F689437F82AE056
:1030B00030E0A5010E94AD1BC82ECA188C2C432CF1
:1030C00036FE0CC0E89440F8C91440F434FE05C044
:1030D00032FC03C0F32DFE7E4F2E892C44FE95C09A
:1030E000FE01EC0DF11D8081803309F087C0242D95
:1030F000297E422E842D8870582E43FC95C040FEB8
:103100008FC09C2C821418F42C0C922C981844FE1E
:1031100091C0B70180E390E00E947D1B42FE09C090
:1031200088E790E041FE02C088E590E0B7010E9488
:103130007D1BC91408F48AC0CA94D12C9FEFC91A08
:10314000D90ACA0CDB1CF60182916F01B70190E02D
:103150000E947D1BAC14BD04B1F74FCF608171811B
:10316000072E000C880B990B0E5F1F4F92CFD32CAC
:10317000E894D4F82AE030E0853739F1232D297F0F
:10318000D22E8F3601F148F48835A9F0F7018681F7
:1031900097812B96E2E10C94751D803749F08837B2
:1031A000A9F7D4FE02C06894D2F820E130E00DC047
:1031B0006894D4F8F6CF34FE03C0822F8660D82EF0
:1031C00020E132E002C028E030E0F801D7FE0FC075
:1031D00060817181828193810C5F1F4FA5010E94E4
:1031E000AD1BC82ECA183D2CE89437F867CF608114
:1031F000718190E080E00E5F1F4FF0CF42FC02C073
:10320000839478CF8394839475CF842D867809F442
:1032100071CFF6CFB70180E290E00E947D1B8394CE
:103220008214C0F3512C73CF522C5818821408F416
:103230006ECFF8CF842D867809F47BCF8BE241FEE8
:1032400080E247FC8DE2B70190E071CFB70180E3E7
:1032500090E00E947D1B9A946CCF8FEF9FEF99CFE7
:10326000A9E0B0E0E6E3F9E10C945F1D6A01F22EFB
:10327000B02E102FFBE3AF2EA01608F41BE31F5F48
:10328000012F27E0AE014F5F5F4F0E948F1ABC01F4
:103290008981982F9970913009F43FC09BE2E1FC3D
:1032A00004C09E2D9170E0FC3AC05E2D5071E82F55
:1032B000E87083FF46C084E0911101C083E0EF2DE8
:1032C000E81B8F1508F0E0E0D6018E2F20E2552391
:1032D00051F1992329F0D6019C93C60101966C0106
:1032E00096012D5F3F4FE2FE24C08EE4D6018C9301
:1032F00091E411969C93119712968C93D9018E2F7D
:1033000090E281111BC0E20FF32FF11D10828EEFAE
:103310009FEF2996ECE00C947B1D9DE2C6CF90E2D6
:10332000C4CF2D9381508111FCCFCE0ED11CE0E093
:10333000D0CF8EE6D6018C9391E6DBCF9D93815062
:10334000E0CF482F447082FF3DC084E0911101C05E
:1033500083E08F1510F4EF2DE81BD6018E2F20E2AD
:10336000552309F1992329F0D6019C93C6010196B2
:103370006C0196012D5F3F4FE2FE1BC089E4D60130
:103380008C938EE411968C93119786E412968C930D
:10339000D9018E2F90E2882309F4B5CF9D938150F7
:1033A000FACF2D9381508111FCCFCE0ED11CE0E0DD
:1033B000D9CF89E6D6018C938EE611968C9311971E
:1033C00086E6E4CF9B0177FF02C030E020E0A1E079
:1033D000B0E0911102C0B0E0A0E0F9013196AE0F6B
:1033E000BF1F8B2C912CBB2009F461C05401EFEF5F
:1033F000AE1ABE0AAA0DBB1DFA161B0619F014F070
:103400004F2D4A1B511188C0E3FC59C07601A42FEF
:10341000B0E2A1114FC0C40ED11C992309F45BC0C6
:1034200040E0D6011196F60190836D01552309F411
:1034300048C0012F060F9A81582F507184FF03C096
:10344000913309F4015010160CF047C0093008F010
:1034500008E0EEE2FE2E5B01A01AB108850191940E
:10346000819491082F3F320729F4D601FC92F6018E
:1034700031966F016217730794F1021713077CF5F9
:10348000DB01A21BB30BAA24A394B12CAC0EBD1E6E
:10349000AA0DBB1D11968C9121503109D6011196B0
:1034A00028153905F4F0F60180836D01DBCFB12CCE
:1034B000A12CA0CFF701B1937F01A150AACF911108
:1034C000B0CFD601942F50E302C05D93915091117B
:1034D000FCCFC40ED11C40E0ACCF01E0BACF80E3FA
:1034E000DBCF6217730731F4963388F4953311F408
:1034F000552369F0F6018083FD01842F90E281114C
:1035000008C0A40FB11D1C9290E080E002CF81E3BF
:10351000F1CF91938150F3CF911183CF8ACF28308F
:1035200008F027E03327DA01990F311D87FD9160FC
:1035300000966105710539F432602E5F3D9330E3EA
:103540002A95E1F708959F3F30F0803871056105B5
:1035500009F03C5F3C5F3D93913008F08068911D1D
:10356000DF93CF931F930F93FF92EF92192F987FC2
:103570009695E92F96959695E90FFF27E255FF4F0F
:1035800099273327EE24FF24A701E701059008942B
:10359000079428F4360FE71EF81E491F511D660FC9
:1035A000771F881F991F0694A1F70590079428F4A8
:1035B000E70EF81E491F561FC11D770F881F991F60
:1035C000661F0694A1F70590079428F4F80E491F8A
:1035D000561FC71FD11D880F991F661F771F06949E
:1035E000A1F70590079420F4490F561FC71FD81F55
:1035F000990F661F771F881F0694A9F7849110956D
:10360000177041F0D695C79557954795F794E7946D
:103610001A95C1F7E4E5F0E068941590159135919D
:103620006591959105907FE27395E118F10A430B3E
:10363000560BC90BD009C0F7E10CF11E431F561FF2
:10364000C91FD01D7EF4703311F48A95E6CFE8943B
:10365000015030F0080F0AF40027021708F4202F59
:103660002395022F7A3328F079E37D932A95E9F7A1
:1036700010C07D932A9589F606949795679537959E
:1036800017951794E118F10A430B560BC90BD00993
:1036900098F023957E9173957A3308F070E37C93CC
:1036A0002013B8F77E9170617D9330F0839571E3BC
:1036B0007D9370E32A95E1F71124EF90FF900F912D
:1036C0001F91CF91DF91992787FD90950895FC0177
:1036D0000590615070400110D8F7809590958E0F3D
:1036E0009F1F0895FC016150704001900110D8F7B0
:1036F000809590958E0F9F1F08950F931F93CF93E2
:10370000DF93182F092FEB018B8181FD09C01FEF7B
:103710000FEF812F902FDF91CF911F910F9108957F
:1037200082FF14C02E813F818C819D81281739072B
:103730003CF4E881F981CF01019699838883108355
:103740008E819F8101969F838E83E3CFE885F985E3
:10375000812F0995892BA1F3DACFFA01AA27283006
:1037600051F1203181F1E8946F936E7F6E5F7F4F4E
:103770008F4F9F4FAF4FB1E03ED0B4E03CD0670FCA
:10378000781F891F9A1FA11D680F791F8A1F911D1D
:10379000A11D6A0F711D811D911DA11D20D009F46D
:1037A00068943F912AE0269F11243019305D3193AF
:1037B000DEF6CF010895462F4770405D4193B3E098
:1037C0000FD0C9F7F6CF462F4F70405D4A3318F03F
:1037D000495D31FD4052419302D0A9F7EACFB4E0F0
:1037E000A6959795879577956795BA95C9F70097A8
:1037F0006105710508959B01AC010A2E0694579549
:10380000479537952795BA95C9F7620F731F841F9F
:10381000951FA01D08950E944D1C08F481E0089595
:10382000E89409C097FB3EF490958095709561955A
:103830007F4F8F4F9F4F9923A9F0F92F96E9BB2710
:103840009395F695879577956795B795F111F8CF8C
:10385000FAF4BB0F11F460FF1BC06F5F7F4F8F4FF7
:103860009F4F16C0882311F096E911C0772321F0ED
:103870009EE8872F762F05C0662371F096E8862F85
:1038800070E060E02AF09A95660F771F881FDAF7DC
:10389000880F9695879597F90895990F0008550F09
:1038A000AA0BE0E8FEEF16161706E807F907C0F0C6
:1038B00012161306E407F50798F0621B730B840BCE
:1038C000950B39F40A2661F0232B242B252B21F4A8
:1038D00008950A2609F4A140A6958FEF811D811D48
:1038E00008950E94841C0C94F51C0E94E71C38F07B
:1038F0000E94EE1C20F0952311F00C94DE1C0C9419
:10390000E41C11240C94291D0E94061D70F3959F40
:10391000C1F3950F50E0551F629FF001729FBB27C6
:10392000F00DB11D639FAA27F00DB11DAA1F649F62
:103930006627B00DA11D661F829F2227B00DA11D15
:10394000621F739FB00DA11D621F839FA00D611D9B
:10395000221F749F3327A00D611D231F849F600DBC
:10396000211D822F762F6A2F11249F5750409AF0E5
:10397000F1F088234AF0EE0FFF1FBB1F661F771F71
:10398000881F91505040A9F79E3F510580F00C943C
:10399000DE1C0C94291D5F3FE4F3983ED4F386951A
:1039A00077956795B795F795E7959F5FC1F7FE2BDC
:1039B000880F911D9695879597F9089597F99F67B8
:1039C00080E870E060E008959FEF80EC08950024A7
:1039D0000A941616170618060906089500240A9474
:1039E00012161306140605060895092E0394000CFA
:1039F00011F4882352F0BB0F40F4BF2B11F460FF89
:103A000004C06F5F7F4F8F4F9F4F089557FD9058B1
:103A1000440F551F59F05F3F71F04795880F97FB92
:103A2000991F61F09F3F79F087950895121613064C
:103A30001406551FF2CF4695F1DF08C0161617067B
:103A40001806991FF1CF86957105610508940895B0
:103A5000E894BB2766277727CB0197F90895052EB1
:103A600097FB1EF400940E94461D57FD07D00E944C
:103A7000901D07FC03D04EF40C94461D50954095C4
:103A8000309521953F4F4F4F5F4F0895909580950A
:103A9000709561957F4F8F4F9F4F08950E94B21D83
:103AA000A59F900DB49F900DA49F800D911D112492
:103AB00008952F923F924F925F926F927F928F92D2
:103AC0009F92AF92BF92CF92DF92EF92FF920F93AD
:103AD0001F93CF93DF93CDB7DEB7CA1BDB0B0FB6B7
:103AE000F894DEBF0FBECDBF09942A883988488874
:103AF0005F846E847D848C849B84AA84B984C8840A
:103B0000DF80EE80FD800C811B81AA81B981CE0F00
:103B1000D11D0FB6F894DEBF0FBECDBFED010895E5
:103B2000A1E21A2EAA1BBB1BFD010DC0AA1FBB1FC1
:103B3000EE1FFF1FA217B307E407F50720F0A21B33
:103B4000B30BE40BF50B661F771F881F991F1A94A0
:103B500069F760957095809590959B01AC01BD01CA
:103B6000CF010895A29FB001B39FC001A39F700D24
:103B7000811D1124911DB29F700D811D1124911D75
:103B80000895AA1BBB1B51E107C0AA1FBB1FA617A4
:103B9000B70710F0A61BB70B881F991F5A95A9F7F6
:103BA00080959095BC01CD01089597FB072E16F4E2
:103BB000009407D077FD09D00E94C11D07FC05D0F5
:103BC0003EF4909581959F4F0895709561957F4F34
:103BD0000895EE0FFF1F0590F491E02D09945058C1
:103BE000BB27AA270E94071E0C94F51C0E94E71C05
:103BF00038F00E94EE1C20F039F49F3F19F426F4AF
:103C00000C94E41C0EF4E095E7FB0C94DE1CE92F09
:103C10000E94061D58F3BA176207730784079507B9
:103C200020F079F4A6F50C94281D0EF4E0950B2EE7
:103C3000BA2FA02D0B01B90190010C01CA01A001FE
:103C40001124FF27591B99F0593F50F4503E68F159
:103C50001A16F040A22F232F342F4427585FF3CF9A
:103C6000469537952795A795F0405395C9F77EF46B
:103C70001F16BA0B620B730B840BBAF09150A1F0B4
:103C8000FF0FBB1F661F771F881FC2F70EC0BA0F3A
:103C9000621F731F841F48F4879577956795B795C2
:103CA000F7959E3F08F0B0CF9395880F08F09927BD
:103CB000EE0F9795879508950E94441F90F09F37C7
:103CC00048F4911116F40C94291D60E070E080E82E
:103CD0009FE3089526F01B16611D711D811D0C9434
:103CE0001B1F0C94361F0E94871E0C94F51C0E940B
:103CF000EE1C58F00E94E71C40F029F45F3F29F0C9
:103D00000C94DE1C51110C94291D0C94E41C0E948F
:103D1000061D68F39923B1F3552391F3951B550BB9
:103D2000BB27AA2762177307840738F09F5F5F4F8E
:103D3000220F331F441FAA1FA9F335D00E2E3AF0CD
:103D4000E0E832D091505040E695001CCAF72BD0E5
:103D5000FE2F29D0660F771F881FBB1F2617370736
:103D60004807AB07B0E809F0BB0B802DBF01FF2768
:103D700093585F4F3AF09E3F510578F00C94DE1C4B
:103D80000C94291D5F3FE4F3983ED4F38695779514
:103D90006795B795F7959F5FC9F7880F911D969521
:103DA000879597F90895E1E0660F771F881FBB1F7D
:103DB000621773078407BA0720F0621B730B840B2A
:103DC000BA0BEE1F88F7E09508950E94EC1E6894E8
:103DD000B1110C94291D08950E940E1D88F09F5763
:103DE00098F0B92F9927B751B0F0E1F0660F771F1F
:103DF000881F991F1AF0BA95C9F714C0B13091F015
:103E00000E94281DB1E008950C94281D672F782F7B
:103E10008827B85F39F0B93FCCF3869577956795D9
:103E2000B395D9F73EF490958095709561957F4F45
:103E30008F4F9F4F0895882371F4772321F0985076
:103E4000872B762F07C0662311F499270DC0905158
:103E5000862B70E060E02AF09A95660F771F881F26
:103E6000DAF7880F9695879597F908959F3F31F077
:103E7000915020F4879577956795B795880F911D98
:103E80009695879597F908950E940E1DA0F0BEE7BC
:103E9000B91788F4BB279F3860F41616B11D672F39
:103EA000782F8827985FF7CF869577956795B11D0E
:103EB00093959639C8F308950E944D1C08F48FEF2E
:103EC00008950E944D1C880B990B08950F931F9322
:103ED000CF93DF938230910510F482E090E0E0917F
:103EE0006602F091670230E020E0B0E0A0E0309799
:103EF00099F42115310509F44AC0281B390B2430E7
:103F00003105D8F58A819B816115710589F1FB0125
:103F100093838283FE0111C040815181028113810C
:103F200048175907E0F04817590799F4109761F0BE
:103F300012960C93129713961C933296CF01DF9131
:103F4000CF911F910F91089500936602109367021D
:103F5000F4CF2115310551F04217530738F0A9016C
:103F6000DB019A01BD01DF01F801C1CFEF01F9CFFB
:103F70009093670280936602CDCFFE01E20FF31F9C
:103F8000819391932250310939832883D7CF20918F
:103F9000640230916502232B41F420916B00309133
:103FA0006C00309365022093640220916900309187
:103FB0006A002115310541F42DB73EB740916D00DF
:103FC00050916E00241B350BE0916402F091650264
:103FD000E217F307A0F42E1B3F0B2817390778F0E0
:103FE000AC014E5F5F4F2417350748F04E0F5F1F3F
:103FF0005093650240936402819391939FCFF0E0C8
:10400000E0E09CCFCF93DF930097E9F0FC0132977B
:1040100013821282A0916602B0916702ED0130E036
:1040200020E01097A1F420813181820F931F20910D
:104030006402309165022817390709F061C0F093D6
:104040006502E0936402DF91CF910895EA01CE17F3
:10405000DF07E8F54A815B819E0141155105B1F703
:10406000E901FB83EA8349915991C40FD51FEC17ED
:10407000FD0761F4808191810296840F951FE9010B
:1040800099838883828193819B838A83F0E0E0E037
:1040900012968D919C9113970097B9F52D913C91B3
:1040A0001197CD010296820F931F209164023091E7
:1040B00065022817390739F6309751F510926702D3
:1040C00010926602B0936502A0936402BCCFD383C2
:1040D000C28340815181840F951FC817D90761F4AD
:1040E0004E5F5F4F88819981480F591F51834083EC
:1040F0008A819B81938382832115310509F0B0CF9A
:10410000F0936702E09366029ECFFD01DC01C0CF11
:1041100013821282D7CFB0E0A0E0E1E9F0E20C9484
:104120005B1D8C01009751F4CB010E94661F8C012E
:10413000C801CDB7DEB7E0E10C94771DFC01E60FB6
:10414000F71F9C0122503109E217F30708F49DC0C4
:10415000D901CD91DC911197C617D70798F0C530DA
:10416000D10530F3CE0104978617970708F3C61BD5
:10417000D70B2297C193D1936D937C93CF010E946B
:104180000220D6CF5B01AC1ABD0A4C018C0E9D1EDD
:10419000A0916602B0916702512C412CF12CE12CC8
:1041A000109731F580916402909165028815990508
:1041B00009F05CC04616570608F058C080916900A7
:1041C00090916A00009741F48DB79EB740916D00C1
:1041D00050916E00841B950BE817F90708F055C045
:1041E000F0936502E0936402F90171836083A0CFCC
:1041F0008D919C91119712966C90129713967C90CA
:104200001397A815B90559F56C0142E0C40ED11CED
:10421000CA14DB0420F1AC014A195B09DA011296D9
:10422000159780F06282738251834083D9016D9328
:104230007C93E114F10471F0D7011396FC93EE9393
:10424000129776CF22968C0F9D1FF9019183808360
:10425000F301EFCFF0936702E093660269CF48164F
:10426000590608F42C017D01D3019ACFCB010E949D
:10427000661F7C01009749F0AE01B8010E944821F9
:10428000C8010E940220870153CF10E000E050CF08
:10429000FB01DC0102C001900D9241505040D8F763
:1042A0000895FB01DC0101900D920020E1F70895D3
:1042B000AEE0B0E0EEE5F1E20C94671D8C01FA018E
:1042C00086E08C831A83098377FF02C060E070E880
:1042D000615071097E836D83A901BF01CE010196F2
:1042E0000E9456174D815E8157FD0AC02F81388587
:1042F000421753070CF49A01020F131FF8011082A2
:104300002E96E4E00C94831D13E0CBE3D3E004C0CD
:10431000FE010E94E91D2196CC33D107C9F7F8941C
:02432000FFCFCD
:10432200EA050000000001000200006802800000AF
:10433200000000700B00000000210D00000000E8EA
:104342000700000000940D000000008A06EB05182B
:1043520006F106490627063B060D0A006E616E004D
:10436200696E66006F7666005B25735D20004445CA
:104372004255470053657474696E67206C6F6720FD
:104382006C6576656C20746F2025730A00494E4671
:104392004F005741524E494E4700496F542D4772C4
:1043A20065656E686F75736500414C4C00302E3444
:1043B2002E3130005741524E494E473A2074696DB2
:1043C2006572206C6F67696320666F722077617413
:1043D20065722070756D70206973206E6F7420791C
:1043E20065742074657374656420616674657220F7
:1043F2007265666163746F72696E672100250000E1
:00000001FF
