:100000000C94D5020C94E60E0C94BF0E0C94FD02D9
:100010000C94FD020C94FD020C94FD020C94FD0264
:100020000C94FD020C94FD020C94FD020C94650FDF
:100030000C94FD020C94FD020C94FD020C94FD0244
:100040000C94750E0C94FD020C94330F0C940D0F50
:100050000C94FD020C94FD020C94FD020C94FD0224
:100060000C9464100C94FD0200407A10F35A00A026
:10007000724E18090010A5D4E80000E87648170071
:1000800000E40B54020000CA9A3B000000E1F505B1
:10009000000080969800000040420F000000A086FB
:1000A00001000000102700000000E803000000002D
:1000B0006400000000000A000000000001000000D1
:1000C00000002C76D888DC674F0823DFC1DFAE59EB
:1000D000E1B1B796E5E3E453C63AE651997696E87E
:1000E000E6C28426EB898C9B62ED407C6FFCEFBC02
:1000F0009C9F40F2BAA56FA5F490055A2AF75C932D
:100100006B6CF9676DC11BFCE0E40D47FEF520E662
:10011000B500D0ED902E0300943577050080841E45
:10012000080000204E0A000000C80C333333330FA0
:10013000986E12831141EF8D2114893BE65516CF3D
:10014000FEE6DB18D1844B381BF77C1D901DA4BB49
:10015000E424203284725E228100C9F124ECA1E5FE
:100160003D2753746570706572206D6F746F7220D7
:100170007265616368656420746865207265717575
:10018000657374656420706F736974696F6E3A206B
:1001900000526561636865642066696E616C2070F9
:1001A0006F736974696F6E005475726E696E672043
:1001B0006F666620616972207175616C697479205F
:1001C00073656E736F72005475726E696E67206F1F
:1001D0006E20616972207175616C69747920736534
:1001E0006E736F7200426F6F74696E67204669723A
:1001F0006D7761726520666F722041726475696EF9
:100200006F204E616E6F2023312028446967697426
:10021000616C29207769746820737570706F7274CF
:1002200020666F72204C696768742053656E736F27
:10023000722C205761746572666C6F772053656EFF
:10024000736F722C2050756D7020636F6E74726FB7
:100250006C2C20456E7669726F6E656D6E742053DE
:10026000656E736F722C205761746572204C6576D1
:10027000656C2053776974636820616E64205374E1
:100280006570706572204D6F746F7220636F6E744D
:10029000726F6C00426F6F74696E67204669726D91
:1002A0007761726520666F722041726475696E6F46
:1002B000204E616E6F2023322028416E616C6F6783
:1002C00029207769746820737570706F7274206666
:1002D0006F72204D6F6973747572652053656E730C
:1002E0006F72732C20416972205175616C69747949
:1002F0002053656E736F7220616E64206C6967684D
:10030000742064696D6D696E6720636F6E74726FBF
:100310006C000A20202020202020202020202020C7
:1003200020205F5F2F290A2020202020202020204D
:100330002020202E2D285F5F283D3A0A20202020F3
:1003400020202020202020207C202020205C290A22
:1003500020202020205F5F5F5F5F20207C20205FC7
:100360000A202020202F20202020205C207C202FED
:10037000205C200A20202020202020205F5F5F5C5E
:100380007C2F5F5F5F5C200A202020202020205BE4
:100390002020202020202020205D5C200A202020FA
:1003A00020202020205C202020202020202F202002
:1003B0005C200A2020202020202020205C202020DB
:1003C00020202F200A202020202020202020205CF8
:1003D0005F5F5F2F200A00466C6F772073656E7336
:1003E0006F722076616C75653A2000576174657292
:1003F0006C6576656C3A2000C2B043202F20004522
:100400006E7669726F6E6D656E742073656E736F54
:10041000723A20004C696768742073656E736F725E
:10042000206C6576656C3A200041697220717561B7
:100430006C6974793A2025730A004D6F697374757D
:1004400072652073656E736F72202564206C65760B
:10045000656C3A2025640A004D6F69737475726586
:100460002073656E736F72202564206C6576656CF1
:100470003A2025640A004D6F6973747572652073A4
:10048000656E736F72202564206C6576656C3A200A
:1004900025640A004D6F6973747572652073656E0B
:1004A000736F72202564206C6576656C3A20256434
:1004B0000A002D2D2D2D2D2D2D2D2D2D2D2D2D2DBC
:1004C0002D2D2D2D2D2D0053656E736F722073749D
:1004D000617475733A0000000000240027002A00B0
:1004E00000000000250028002B000404040404047C
:1004F00004040202020202020303030303030202D2
:1005000003010204081020408001020408102001A9
:10051000020408102040804000000009000302008F
:1005200000040508000000000000000000000000BA
:100530000000002300260029005265616420616EDE
:10054000642063616368696E6720416972517561F7
:100550006C6974792056616C75653A202573200AA0
:10056000002A205374617274696E6720496F542D9C
:10057000477265656E686F75736520436F6E747240
:100580006F6C6C65722076657273696F6E2025736F
:1005900020696E204669726D77617265206D6F64A7
:1005A000652025690A0079115E1911241FBECFEF5D
:1005B000D8E0DEBFCDBF11E0A0E0B1E0ECE0F8E4B0
:1005C00002C005900D92A03BB107D9F722E0A0EB45
:1005D000B1E001C01D92A03FB207E1F712E0C4ED07
:1005E000D2E004C02197FE010E945E20C33DD107E6
:1005F000C9F70E94EB110C94F9230C940000FB0145
:10060000A485B585ED91FC9111970190F081E02DC5
:10061000682FCD01099590E080E008958091D60281
:100620009091D702A091D802B091D9022091CF0227
:10063000213091F0223091F18091D6029091D70231
:10064000A091D802B091D902892B8A2B8B2B19F457
:1006500081E08093CE020895AC01BD018F3F2FEF62
:100660009207A105B10520F04FEF5FEF60E070E069
:100670005093890040938800841B950BA60BB70B01
:100680008093D6029093D702A093D802B093D90258
:1006900080916F00826080936F00CECF8F3F910575
:1006A000A105B10529F020F08FEF90E0A0E0B0E0C7
:1006B0008093B3004091D6025091D7026091D80246
:1006C0007091D902481B590B6A0B7B0B4093D602E1
:1006D0005093D7026093D8027093D9028091700032
:1006E000826080937000A8CFF8948091CF0281300F
:1006F00021F0823041F07894089580916F008D7FD1
:1007000080936F00F8CF809170008D7F8093700090
:10071000F2CFCF92DF92EF92FF92CF93DF93DC0183
:100720001796CC911797D0E06111DC2F18962C9179
:10073000189730E0220F331F215D3A4F50E040E020
:10074000F90185919491FC01F080BA0190E080E07C
:10075000EF2DEC23ED1310C04F5F5F4F1D96CD9032
:10076000DD90ED90FC9050976C157D058E059F05F2
:1007700038F36FEF7FEFCB01DF91CF91FF90EF90D8
:10078000DF90CF900895843081F028F48230E9F032
:100790008330F9F00895883071F0893091F0853018
:1007A000B9F4809180008F7D03C0809180008F77A5
:1007B0008093800008958091B0008F778093B0007F
:1007C00008958091B0008F7DF9CF84B58F7784BD77
:1007D000089584B58F7DFBCFCF93DF93282F30E032
:1007E000F901E85EFA4F8491F901EF5FFA4FD49175
:1007F000F901E651FB4FC491CC23A1F081110E9475
:10080000C303EC2FF0E0EE0FFF1FE15DFA4FA5915F
:10081000B491EC91ED2381E090E009F480E0DF9168
:10082000CF91089580E090E0FACF1F93CF93DF93AC
:10083000282F30E0F901E85EFA4F8491F901EF5F6B
:10084000FA4FD491F901E651FB4FC491CC23A9F0A2
:10085000162F81110E94C303EC2FF0E0EE0FFF1F53
:10086000E052FB4FA591B4918FB7F894EC91111120
:1008700008C0D095DE23DC938FBFDF91CF911F910D
:100880000895DE2BF8CFCF93DF9390E0FC01EF5F6C
:10089000FA4F249186519B4FFC0184918823C9F023
:1008A00090E0880F991FFC01EA52FB4FA591B4918B
:1008B000FC01E052FB4FC591D49161110DC09FB76F
:1008C000F8948C91209582238C9388812823288307
:1008D0009FBFDF91CF910895623051F49FB7F89494
:1008E0003C91822F809583238C93E8812E2BEFCF30
:1008F0008FB7F894EC912E2B2C938FBFEACF8830D2
:1009000020F08D3008F48DE08E50877080648093E5
:100910007C0080917A00806480937A0080917A00D4
:1009200086FDFCCF80917800909179000895823007
:10093000910538F0880F991F880F991F0597019727
:10094000F1F708953FB7F89480912C0290912D0211
:10095000A0912E02B0912F0226B5A89B05C02F3F73
:1009600019F00196A11DB11D3FBFBA2FA92F982FD5
:100970008827BC01CD01620F711D811D911D42E0D0
:10098000660F771F881F991F4A95D1F708958F9298
:100990009F92AF92BF92CF92DF92EF92FF924B0164
:1009A0005C010E94A2046B017C010E94A2046C19EC
:1009B0007D098E099F09683E734081059105A8F362
:1009C00021E0821A9108A108B10888EEC80E83E0E0
:1009D000D81EE11CF11C81149104A104B10429F773
:1009E000FF90EF90DF90CF90BF90AF909F908F904F
:1009F00008952FB7F8946091280270912902809190
:100A00002A0290912B022FBF08958F929F92AF924E
:100A1000BF92CF92DF92EF92FF920F931F93CF93EB
:100A2000DF93CDB7DEB7C054D1400FB6F894DEBF28
:100A30000FBECDBF8C010E94F904F801C184D2849D
:100A4000E384F4849B01AC012C193D094E095F0934
:100A500069017A0130EDC31637E0D306E104F104F1
:100A6000A8F48189C05CDE4F0FB6F894DEBF0FBEDC
:100A7000CDBFDF91CF911F910F91FF90EF90DF904D
:100A8000CF90BF90AF909F908F90089561877287AD
:100A9000838794871482138212821182108262E00B
:100AA00085810E94430461E070E080E090E00E9454
:100AB000C70461E0F80185810E94430460E0F80109
:100AC00085810E941504F801868185518230E8F401
:100AD0008CE494E00E94970462E0F80185810E9412
:100AE0004304F801828990E00E949704F89460E042
:100AF000C8010E9489036F3F7F4F8F4F9F4F61F462
:100B0000F801118A789480E0ADCF64E170E080E074
:100B100090E00E94C704E0CF61E0C8010E94890311
:100B20006F3F7F4F8F4F9F4F59F39E012F5F3F4F76
:100B300079015E013FEBA31A3EEFB30A670160E063
:100B4000C8010E948903F6016083718382839383C5
:100B500061E0C8010E948903F6016483758386837E
:100B60009783F8E0CF0ED11CCA14DB0441F77894C8
:100B700030E020E0F70180809180A280B380448142
:100B8000558166817781FFEF8F169F06AF06BF06FE
:100B900031F04F3F8FEF58076807780719F4F801D5
:100BA000118AB1CFF90183E0F595E7958A95E1F7D0
:100BB000E00FF11F8081880F84169506A606B70600
:100BC000F0F080832F5F3F4FF8E0EF0EF11C2832EA
:100BD000310581F6F801448120818181280F332776
:100BE000331F8281280F311D8381820F932F911D26
:100BF00099274817190699F681E0818B33CF8160D8
:100C0000E0CFCF93DF93C0910302D091040260E064
:100C100089810E9415041882DF91CF910895CF93A6
:100C2000DF93C0910102D09102028F818F5F8F8389
:100C30000E94F904688779878A879B87DF91CF9123
:100C400008950895AF92BF92CF92DF92EF92FF92F4
:100C50000F931F93CF93DF936C017B018B01040FE4
:100C6000151FEB015E01AE18BF08C017D10759F080
:100C70006991D601ED91FC910190F081E02DC601C2
:100C80000995892B79F7C501DF91CF911F910F91BC
:100C9000FF90EF90DF90CF90BF90AF900895FC0150
:100CA000538D448D252F30E0842F90E0821B930BD1
:100CB000541710F0CF96089501970895FC01918D77
:100CC000828D981761F0A28DAE0FBF2FB11D5D967A
:100CD0008C91928D9F5F9F73928F90E008958FEF1C
:100CE0009FEF0895FC01918D828D981731F0828DD0
:100CF000E80FF11D858D90E008958FEF9FEF089527
:100D0000FC01918D228D892F90E0805C9F4F821B8A
:100D100091098F739927089581E392E00E948006DC
:100D200021E0892B09F420E0822F089580E090E0F3
:100D3000892B29F00E948C0681110C9400000895E3
:100D4000FC01A48DA80FB92FB11DA35ABF4F2C9140
:100D5000848D90E001968F739927848FA689B78937
:100D60002C93A089B1898C91837080648C93938D2E
:100D7000848D981306C00288F389E02D80818F7DD1
:100D800080830895EF92FF920F931F93CF93DF9389
:100D9000EC0181E0888F9B8D8C8D98131AC0E889B7
:100DA000F989808185FF15C09FB7F894EE89FF8986
:100DB0006083E889F98980818370806480839FBF24
:100DC00081E090E0DF91CF911F910F91FF90EF9024
:100DD0000895F62E0B8D10E00F5F1F4F0F73112734
:100DE000E02E8C8D8E110CC00FB607FCFACFE8896F
:100DF000F989808185FFF5CFCE010E94A006F1CF51
:100E0000EB8DEC0FFD2FF11DE35AFF4FF0829FB7E2
:100E1000F8940B8FEA89FB8980818062CFCF0F9392
:100E20001F93CF93DF938C01D0E0C0E0F801EC0F6B
:100E3000FD1F6491662341F081E392E00E94C206A7
:100E4000892B11F02196F2CFCE01DF91CF911F9126
:100E50000F910895CF93DF93EC01888D8823B9F02B
:100E6000AA89BB89E889F9898C9185FD03C08081B5
:100E700086FD0DC00FB607FCF7CF8C9185FFF2CF32
:100E8000808185FFEDCFCE010E94A006E9CFDF91E2
:100E9000CF9108952F923F924F925F926F927F92DF
:100EA0008F929F92AF92BF92CF92DF92EF92FF927A
:100EB0000F931F93CF93DF938C01FC01C380D480E9
:100EC000F12CE12C81809280B12CA12C80810E9498
:100ED0007F04BC01990F880B990B0E94871E1B0190
:100EE0002C01F8016381748190E080E00E94851EEE
:100EF0003B01D82FC92F9B01482F592FB101C201A7
:100F00000E94801E87FD16C0F8016181728190E009
:100F100080E00E94851E3B01D82FC92F9B01482FDE
:100F2000592FB101C2010E94D12118161CF03101C4
:100F3000D42DC52DB3018D2F9C2F0E945A219B01CA
:100F4000AC01281939094A095B09A4E6B0E00E94FE
:100F5000C31FA7019601281939094A095B090E9494
:100F6000A41F822FDF91CF911F910F91FF90EF90DF
:100F7000DF90CF90BF90AF909F908F907F906F90B9
:100F80005F904F903F902F90089585ED8093BC0027
:100F90008091BC0084FDFCCF1092FB01089520914C
:100FA000D701260F3327331F21323105ECF420916E
:100FB000FB01FC0190E080E0243069F082E00895BC
:100FC000A091D7012191AC0149545E4FA40FB52FD8
:100FD000B11D2C930196861798F38091D701680F65
:100FE0006093D70180E0089581E0089508958FEF20
:100FF0009FEF08958FEF9FEF08958091B60190E0E5
:101000009195819591090895CF93DF93CB01EA01E2
:10101000642F0E94CF07CE01DF91CF910895CF9327
:10102000DF931F92CDB7DEB7698361E0CE010196F1
:101030000E94CF0781E090E00F90DF91CF9108955B
:1010400090E080E00895CF93DF93EC018D810E94C2
:101050007F04893E23E092074CF024E62C832E8106
:10106000211102C021E02E831F8218869C01255F7A
:101070003140233F314060F482E38C838F818111C2
:1010800002C081E08F831E821886DF91CF91089580
:10109000843F9140D4F71C828885811102C081E091
:1010A00088871F821E82F1CFFC0101900020E9F7A2
:1010B0003197AF01481B590BBC0181E392E00C94BE
:1010C00022068F929F92AF92BF920F931F93CF935E
:1010D000DF93CDB7DEB7A1970FB6F894DEBF0FBE92
:1010E000CDBF19A2423008F44AE08E010F5D1F4FB8
:1010F000842E912CB12CA12CA50194010E940520D5
:10110000E62FB901CA01EA30F4F4E05DD801EE93AC
:101110008D01232B242B252B79F790E080E010976D
:1011200019F0CD010E945408A1960FB6F894DEBFC5
:101130000FBECDBFDF91CF911F910F91BF90AF90A8
:101140009F908F900895E95CE1CFCF92DF92EF926C
:10115000FF926B017C0182E691E00E940F074AE05A
:10116000C701B601F7FE0DC06DE281E392E00E9477
:10117000C20666277727CB016C197D098E099F0966
:101180004AE00E94610883E591E0FF90EF90DF90D4
:10119000CF900C945408CF93DF93D0E0C0E0009739
:1011A00019F00E945408EC0183E591E00E94540874
:1011B0008C0F9D1FDF91CF910895CF93DF930E94F5
:1011C0000F07EC0183E591E00E9454088C0F9D1FEE
:1011D000DF91CF9108954F925F926F927F928F929D
:1011E0009F92AF92BF92CF92DF92EF92FF920F93B6
:1011F0001F93CF936B017C01742EAC019B010E9465
:10120000D621882399F086E591E0CF911F910F9127
:10121000FF90EF90DF90CF90BF90AF909F908F9016
:101220007F906F905F904F900C9454084601570147
:10123000E894B7F82FEF3FEF4FE75FE7C501B40140
:101240000E94D62181110DC02FEF3FEF4FE75FE7DE
:10125000C501B4010E94801E18161CF48AE591E0B5
:10126000D4CF2FEF3FEF4FE75FE4C701B6010E94F5
:10127000D12118161CF48EE591E0C7CF2FEF3FEF78
:101280004FE75FECC701B6010E94801E87FDF3CFD8
:1012900020E030E0A901C701B6010E94801E10E0E5
:1012A00000E087FF0AC06DE281E392E00E94C2067F
:1012B0008C01F7FAF094F7F8F094C0E060E070E089
:1012C00080E09FE37C1641F020E030E040E251E412
:1012D0000E94E820CF5FF6CFA70196010E9465200B
:1012E0002B013C010E9461214B015C014AE00E94FC
:1012F00061087C01E00EF11ECC23C1F1C501B401EF
:101300000E94851E9B01AC01C301B2010E946420B2
:101310004B015C016EE281E392E00E94C206E80E9E
:10132000F91EC15018F120E030E040E251E4C5015F
:10133000B4010E94E61E2B013C010E9461214B0179
:10134000B12CA12C4AE0C501B4010E946108E80E4D
:10135000F91EC501B4010E94851E9B01AC01C301A9
:10136000B2010E9464204B015C01DBCFC701CF9129
:101370001F910F91FF90EF90DF90CF90BF90AF90B3
:101380009F908F907F906F905F904F900895CF9334
:10139000DF93CDB7DEB72E970FB6F894DEBF0FBE42
:1013A000CDBF8FEF92E09A8789871C861B8682E0EB
:1013B0008C8381E392E09E878D87AE01495E5F4F0B
:1013C00062E671E0CE0101960E94CB192E960FB60F
:1013D000F894DEBF0FBECDBFDF91CF910895CF93BC
:1013E000DF93209130022223E1F0FC01C081D18102
:1013F00088E691E09F938F9382E691E09F938F938D
:1014000081E392E09F938F930E94C7090F900F9002
:101410000F900F900F900F90CE01DF91CF910C9411
:10142000CB08DF91CF910895CF93DF93CDB7DEB78F
:101430002E970FB6F894DEBF0FBECDBF8FEF92E0B0
:101440009A8789871C861B8682E08C8381E392E0E1
:101450009E878D87AE01495E5F4F6D897E89CE0183
:1014600001960E9490192E960FB6F894DEBF0FBE1B
:10147000CDBFDF91CF9108950F931F93CF93DF934B
:10148000CDB7DEB7C85ED3400FB6F894DEBF0FBE4F
:10149000CDBF182F092F9B014EE651E068EE73E097
:1014A000CE0101960E94CD230F931F9382E691E017
:1014B0009F938F9381E392E09F938F930E94C7093C
:1014C000CE0101960E9454080F900F900F900F903C
:1014D0000F900F90C851DC4F0FB6F894DEBF0FBECF
:1014E000CDBFDF91CF911F910F910895CF93DF93DF
:1014F000CDB7DEB780910601823038F0BE01695F5A
:101500007F4F87E891E00E943C0ADF91CF910895D8
:101510000F931F93CF93DF93EC01888199810097FC
:1015200059F02A813B812617370730F081E0DF919F
:10153000CF911F910F9108958B016F5F7F4F0E9494
:101540000023009759F0998388831B830A832C8199
:101550003D81232B59F7FC011082E8CF80E0E7CFD3
:10156000CF93DF93EC0188819981009711F00E945D
:101570007722198218821D821C821B821A82DF91B7
:10158000CF910895EF92FF920F931F93CF93DF9324
:10159000EC018B01CB010E9487197C01BC01CE01BB
:1015A0000E94880A81110BC0CE010E94B00ACE01B0
:1015B000DF91CF911F910F91FF90EF900895FD82E1
:1015C000EC82B801888199810E948019F0CFEF9256
:1015D000FF920F931F93CF93DF93EC017B018A015E
:1015E000BA010E94880A81110BC0CE010E94B00A84
:1015F000CE01DF91CF911F910F91FF90EF90089551
:101600001D830C83B701888199810E94C623F0CF86
:10161000EF92FF920F931F93CF93DF93CDB7DEB777
:10162000A1970FB6F894DEBF0FBECDBF7C01CB01F2
:10163000BA01F7011182108213821282158214827C
:101640008E010F5F1F4F22E044E00E946219009755
:10165000C9F0FC0101900020E9F73197AF01481B68
:10166000590BBC01C7010E94E70AA1960FB6F89476
:10167000DEBF0FBECDBFDF91CF911F910F91FF90C5
:10168000EF900895C7010E94B00AEFCFCF93DF9388
:10169000EC011092E7021092E6021092E902109219
:1016A000E8021092EB021092EA0250E040E065E599
:1016B00071E086EE92E00E94E70A82E0C63ED8071B
:1016C00099F0688179816115710541F04C815D81E6
:1016D00086EE92E0DF91CF910C94E70A86EE92E0DD
:1016E000DF91CF910C94B00ADF91CF910895FC0166
:1016F00080819181009711F00C9477220895CF9307
:10170000DF9300D000D000D0CDB7DEB761E0FC01A0
:1017100085810E9415041A8219821C821B821E82F6
:101720001D8267EC71E0CE0101960E94C20ACE01D3
:1017300001960E94EF09CE0101960E94770B269632
:101740000FB6F894DEBF0FBECDBFDF91CF910895E5
:101750008F929F92AF92BF92CF92DF92EF92FF92C1
:101760000F931F93CF93DF9300D000D000D0CDB75D
:10177000DEB78C01DC0153964D915D916D917C91AA
:10178000569757968D919D910D90BC91A02D48171D
:1017900059076A077B0709F466C0F80187849088B7
:1017A000A188B2880E94F9046B017C01D8011E96C1
:1017B0006C9170E088EE93E00E944A20CB01770F95
:1017C000AA0BBB0BC81AD90AEA0AFB0A8C149D049F
:1017D000AE04BF0408F047C061E0F80182850E94B2
:1017E00015040E94F904D8011F966D937D938D9383
:1017F0009C93529753964D915D916D917C91569724
:1018000057968D919D910D90BC91A02DFF24F3943E
:1018100084179507A607B70714F0FF24FA94F80178
:1018200085858F0D87FF89C083E08587D8011D9648
:101830008C91813009F4AAC00CF085C0882309F48A
:101840008EC08F2DFF0C990BAA0BBB0BF80147899B
:10185000508D618D728D840F951FA61FB71F878BCA
:10186000908FA18FB28FD8011C968C911C978111FB
:1018700051C053964D915D916D917C9156975796BD
:101880008D919D910D90BC91A02D481759076A0725
:101890007B0709F03FC081E0F801848760E0868122
:1018A0000E94150460E0D80117968C910E941504DF
:1018B00060E0F80180850E94150460E0D801199667
:1018C0008C910E94150460E0F80182850E94150445
:1018D000D8011296ED91FC911397309739F05796F5
:1018E0006D917D918D919C915A9709951A821982DB
:1018F0001C821B821E821D8261E971E0CE0101966D
:101900000E94C20ACE0101960E94EF09CE01019603
:101910000E94770B26960FB6F894DEBF0FBECDBFA0
:10192000DF91CF911F910F91FF90EF90DF90CF90BB
:10193000BF90AF909F908F900895843014F4858766
:1019400075CF158673CF823041F1833009F079CF9E
:1019500061E0F80186810E94150460E024C061E026
:10196000F80186810E94150460E0D80117968C91D9
:101970000E94150461E0F80180850E94150460E072
:10198000D80119968C910E9415045BCF60E0F80194
:1019900086810E94150461E0E8CF60E0F80186814D
:1019A0000E94150461E0D80117968C910E941504DD
:1019B00060E0F80180850E94150461E0E1CFCF92DC
:1019C000DF92EF92FF920F931F93CF93DF93EC017F
:1019D0000E94F9041F81CE8CDF8CE8A0F9A06C195D
:1019E0007D098E099F090E94851E9B01AC0160E064
:1019F00070E08AE794E40E94E8206B017C01612F8B
:101A000070E090E080E00E94871E9B01AC01C7015E
:101A1000B6010E94E61E2C893D894E895F890E948D
:101A2000E820688F798F8A8F9B8F0E94F9046E8FD0
:101A30007F8F88A399A32EEA37E445E851E4688DA7
:101A4000798D8A8D9B8D0E94E61E0E94D1200E9476
:101A500061217D8F6C8F1F820E851F8528893989B2
:101A600068017901C60ED71EE11CF11CC701B60141
:101A70006E877F87888B998B2C81211118C00A89EA
:101A80001B8930E020E0601771078207930778F028
:101A900021E02C83ED81FE81309749F0DF91CF91D9
:101AA0001F910F91FF90EF90DF90CF900994DF91FD
:101AB000CF911F910F91FF90EF90DF90CF900895FD
:101AC0000C94DF0C0F931F93CF93DF93CDB7DEB74A
:101AD000C85ED3400FB6F894DEBF0FBECDBF182F3F
:101AE000092F9A01AB0168EE73E0CE0101960E94C6
:101AF0009F190F931F9382E691E09F938F9381E349
:101B000092E09F938F930E94C709CE0101960E9495
:101B100054080F900F900F900F900F900F90C85196
:101B2000DC4F0FB6F894DEBF0FBECDBFDF91CF9173
:101B30001F910F910895CF93DF93CDB7DEB78091BA
:101B40000601823048F0AE01495F5F4F61E675E003
:101B500087E891E00E94620DDF91CF910895CF93C5
:101B6000DF93CDB7DEB780913002882349F0AE0114
:101B7000495F5F4F69E375E088E691E00E94620D7E
:101B8000DF91CF910895CF92DF92EF92FF920F9362
:101B90001F93CF93DF9300D000D000D0CDB7DEB736
:101BA0008C01FC0185810E94EC03892B49F50E9480
:101BB000F904F801C284D384E484F5846C197D09A6
:101BC0008E099F09603F794482409105C8F0C801A1
:101BD0000E947F0B0E94F904F80162877387848753
:101BE000958726960FB6F894DEBF0FBECDBFDF9166
:101BF000CF911F910F91FF90EF90DF90CF900895BC
:101C0000F80185810E94EC03019759F70E94F904BD
:101C1000F801C284D384E484F5846C197D098E09AB
:101C20009F096033754781059105D8F2F8018481D9
:101C30000E947F04BC01990F880B990B0E94871E9C
:101C400020E030EC4FE754E40E94E82020E030E050
:101C500048EC52E40E94E61EAB01BC01F801468745
:101C60005787608B718BCE0101960E94080B8A8189
:101C70008F9389818F9389E395E09F938F930E943F
:101C8000AF0DCE0101960E94770B60E0F8018581CF
:101C90000E9415041A8219821C821B821E821D82D8
:101CA00068EA71E0CE0101960E94C20ACE01019657
:101CB0000E94EF09CE0101960E94770B0F900F90C2
:101CC0000F900F908ECFCF93DF93CDB7DEB7AE01DD
:101CD0004B5F5F4FFA0161917191AF018CE891E028
:101CE0000E94620DDF91CF9108951F920F920FB65F
:101CF0000F9211242F933F938F939F93AF93BF9392
:101D00008091280290912902A0912A02B0912B0281
:101D10003091270223E0230F2D3768F126E8230FA7
:101D20000296A11DB11D2093270280932802909353
:101D30002902A0932A02B0932B0280912C02909149
:101D40002D02A0912E02B0912F020196A11DB11D6E
:101D500080932C0290932D02A0932E02B0932F0219
:101D6000BF91AF919F918F913F912F910F900FBE97
:101D70000F901F9018950196A11DB11DD4CF1F92F1
:101D80000F920FB60F9211242F933F934F935F93AF
:101D90006F937F938F939F93AF93BF93EF93FF9333
:101DA000E0910201F09103010995FF91EF91BF913C
:101DB000AF919F918F917F916F915F914F913F91E3
:101DC0002F910F900FBE0F901F9018951F920F929A
:101DD0000FB60F9211242F933F934F935F936F93FE
:101DE0007F938F939F93AF93BF93EF93FF93E09174
:101DF0000001F09101010995FF91EF91BF91AF9121
:101E00009F918F917F916F915F914F913F912F9112
:101E10000F900FBE0F901F9018951F920F920FB644
:101E20000F9211242F933F934F935F936F937F9360
:101E30008F939F93AF93BF93EF93FF9381E392E0D0
:101E40000E94A006FF91EF91BF91AF919F918F915A
:101E50007F916F915F914F913F912F910F900FBEA6
:101E60000F901F9018951F920F920FB60F9211248A
:101E70002F938F939F93EF93FF93E0914102F09103
:101E800042028081E0914702F091480282FD1BC02E
:101E9000908180914A028F5F8F7320914B0282174D
:101EA00041F0E0914A02F0E0EF5CFD4F958F8093A6
:101EB0004A02FF91EF919F918F912F910F900FBE4A
:101EC0000F901F9018958081F4CF1F920F920FB63C
:101ED0000F921124CF92DF92EF92FF922F933F93B4
:101EE0004F935F936F937F938F939F93AF93BF9322
:101EF000EF93FF93C090DA02D090DB02E090DC0217
:101F0000F090DD028091CF02813009F04DC0C11404
:101F1000D104E104F10409F4D4C08091CE028823F5
:101F200009F459C0E091E202F091E302309741F0E8
:101F30008091E4029091E502009709F44AC0099566
:101F40008091D2029091D302A091D402B091D50297
:101F50000097A140B105B4F0F8948091D20290911D
:101F6000D302A091D402B091D5028093D60290936F
:101F7000D702A093D802B093D9020E940E03109208
:101F8000CE0278941C141D041E041F046CF481E01E
:101F9000C81AD108E108F108C092DA02D092DB0237
:101FA000E092DC02F092DD02FF91EF91BF91AF91E0
:101FB0009F918F917F916F915F914F913F912F9161
:101FC000FF90EF90DF90CF900F900FBE0F901F907B
:101FD00018950995B5CFF8942091CF028091D6023B
:101FE0009091D702A091D802B091D902223009F481
:101FF00048C08F3F9F4FA105B10510F40E940E030A
:102000008091D6029091D702A091D802B091D902C6
:10201000AC01BD018F3F2FEF9207A105B10520F064
:102020004FEF5FEF60E070E0841B950BA60BB70BE2
:102030008093D6029093D702A093D802B093D9028E
:102040008091D6029091D702A091D802B091D90286
:10205000892B8A2B8B2B91F58091D2029091D30200
:10206000A091D402B091D5028093D6029093D7026A
:10207000A093D802B093D90281E08093CE027894E5
:1020800093CF8F3F9105A105B10510F40E940E0377
:102090008091D6029091D702A091D802B091D90236
:1020A000AC01BD018F3F9105A105B10509F008F410
:1020B000BBCF4FEF50E060E070E0B6CF1092CE02A1
:1020C000DECF0E94740370CF1F920F920FB60F9253
:1020D00011242F933F934F935F936F937F938F932D
:1020E0009F93AF93BF93EF93FF938091B900887F45
:1020F000803609F44AC0F0F5883209F4A5C018F515
:10210000803109F499C0B8F4882309F4EFC088300D
:1021100009F492C0FF91EF91BF91AF919F918F9180
:102120007F916F915F914F913F912F910F900FBED3
:102130000F901F901895883109F486C0803251F7AE
:102140008093FA0114C0803409F497C040F48033BE
:10215000B9F38833F9F68093FA0185ECA8C080358D
:1021600009F481C0883509F490C0883499F60E943A
:10217000C507D0CF883909F486C038F5883729F0EB
:1021800050F4883611F0803729F683E08093FB0104
:102190001092F90155C0883809F475C0803919F0DA
:1021A000803809F0B7CF8091F901803208F06BC018
:1021B000E091F90181E08E0F8093F9018091BB00DD
:1021C000F0E0E752FE4F80833BC0803B39F0D0F413
:1021D000803A09F471C0883A09F09CCF84E080937A
:1021E000FB011092D8011092D701F0E0E0E00995D0
:1021F0008091D70181110FC081E08093D7011092A7
:10220000B70109C0803C09F4A8CF883C09F4A5CFE8
:10221000883B09F07FCFE091D80181E08E0F809359
:10222000D801F0E0E954FE4F80818093BB0090918B
:10223000D8018091D70125C0809100028093BB0016
:1022400085EC8093BC0066CF9091FF018091FE01E8
:10225000981728F5E091FF0181E08E0F8093FF0130
:10226000F0E08081EBCFE091FF0181E08E0F809361
:10227000FF018091BB00F0E080839091FF0180918D
:10228000FE019817E8F285E8DCCFE091FF0181E0DC
:102290008E0F8093FF018091BB00F0E080838091DE
:1022A000FD01811164CF81E08093FC0184EA809379
:1022B000BC001092FB012ECF85EC8093BC001092E5
:1022C000FB018091F901803230F4E091F901F0E0F6
:1022D000E752FE4F10826091F90170E089ED91E0C4
:1022E000F0E0E0E009951092F90114CF1092FA01A4
:1022F0003ECFCF93DF9300D000D000D0CDB7DEB774
:10230000E1E3F2E01382128288EE93E0A0E0B0E015
:1023100084839583A683B78385E491E0918380834A
:1023200085EC90E09587848784EC90E0978786879A
:1023300080EC90E0918B808B81EC90E0938B828B92
:1023400082EC90E0958B848B86EC90E0978B868B6B
:10235000118E128E138E148EEEECF2E081E08183EA
:10236000108A118A128A138A158A148A178A168A81
:10237000108281E090E0938382831482158216821A
:10238000178210861186128613868FEF9FEFDC016D
:1023900084879587A687B7871A8219821C821B8239
:1023A0001E821D824EE050E064E971E0CE0101968C
:1023B0000E94E70ACE0101960E94460BCE010196CB
:1023C0000E94770B26960FB6F894DEBF0FBECDBFE6
:1023D000DF91CF910895CF93DF9300D000D000D04C
:1023E0001F92CDB7DEB7789484B5836084BD85B580
:1023F000836085BD80916E00816080936E0092E065
:102400009093810080918100816080938100809110
:1024100080008160809380008091B100846080930F
:10242000B1008091B00081608093B00087E8809314
:102430007A001092C100E0914102F0914202908333
:10244000E0913D02F0913E021082E0913F02F09156
:10245000400280E1808310924902E0914502F091B0
:10246000460216E01083E0914302F091440280811D
:1024700088698083E0914302F091440280818F7DDE
:1024800080831092300283EA91E09F938F938EE6CF
:1024900091E09F938F930E94760A81E080933002AF
:1024A00084E08093060183E090E00E94DB2126EE29
:1024B00032E0DC0112963C932E9311971C9360E05E
:1024C00086E00E94430486E00E947F040F900F90F4
:1024D0000F900F90813092400CF417C381E0282FA9
:1024E00030E030930501209304011F928F9387EA17
:1024F00091E09F938F9381E695E09F938F930E9445
:102500009B0D109106010F900F900F900F900F9060
:102510000F90123020F082E193E00E940F0780912B
:10252000040190910501019709F0FFC21230C0F03B
:1025300087E891E09F938F9382E691E09F938F933A
:1025400081E392E09F938F930E94C70985EE91E00B
:102550000E94DD080F900F900F900F900F900F903A
:1025600089E090E00E94DB218C018DE191E0F8018F
:10257000918380831482168217821086A6EEEA2E3B
:10258000A2E0FA2EF382E28287E0858360E00E9477
:102590004304109326020093250287E090E00E94F6
:1025A000DB216C0185E190E0D60116969C938E9319
:1025B00015971296FC92EE92119712E0B12EBC92F2
:1025C00083E190E00E94DB218C01FC01B58285E172
:1025D0008683E3E0F5E0E491D8011796EC93179732
:1025E000ECEEF4E0E4911896EC9380E89EE3A0E032
:1025F000B0E0F80185879687A787B08BD60114963F
:102600001C930E931397D0921202C092110262E0B3
:1026100082E00E9443040E94F904605D77408109D2
:102620009109F801618772878387948787E3828B9A
:1026300087E090E00E94DB218C0188EF93E0D801D5
:1026400011969C938E9388EC90E013969C938E93B6
:1026500012971696FC92EE9215978FE014968C9333
:1026600060E00E94430410931402009313028DE073
:1026700090E00E94DB218C01FC01108280E395E751
:10268000A0E0B0E083839483A583B683878390879B
:10269000A187B287F486E38683E090E0928381830A
:1026A000109304020093030261E00E94430460E07F
:1026B000D80111968C910E94150410932402009366
:1026C000230288E99AE3A0E0B0E0F80187839087CD
:1026D000A187B28783839483A583B68383E290E046
:1026E0000E94DB218C0187E191E0D80111969C9337
:1026F0008E9314961C92149716961C921E92159700
:1027000017961C921797F801108611861286138669
:1027100088EE93E0958784871E961D921D921D92E8
:102720001C92519784E690E053969C938E93529717
:1027300080E090E0A4EBB2E4848B958BA68BB78B02
:10274000108E118E128E138E158E148E168E178E7D
:1027500010A211A2F382E28288E082A360E00E94CC
:1027600043041093020200930102D80192968C91C7
:10277000823009F4CCC1833069F48FE096E0909305
:1027800003018093020180916900837F88608093B8
:102790006900E99A1093100200930F02F801178262
:1027A00016861786108A118A1482C8010E94DF0CCF
:1027B0008BE190E00E94DB218C0181E191E0F80146
:1027C0009183808313821282148615868AE086871D
:1027D0001786108A118A128A138A148A158A168A11
:1027E000178A108E118E128E97E0968395E097834C
:1027F00096E0908794E0918791E19287838786EEB7
:1028000092E09583848361E087E00E94430461E065
:10281000F80187810E94430461E0D80118968C91E9
:102820000E94430461E0F80181850E94430462E054
:10283000D8011B968C910E94430461E0F8018285C7
:102840000E94430460E0D8011A968C910E941504FE
:102850000E94F904F8016787708B818B928B10932B
:102860000A020093090285EA98E0938382838AEF43
:1028700086878CE09EEFAFEFBFEF838B948BA58BA9
:10288000B68B8789908DA18DB28D8C309E4FAF4FC6
:10289000BF4F19F0D8011C961C9241E3E42E42E090
:1028A000F42E00910401109105010130110509F089
:1028B0004FC32090230230902402D1018C91E091EB
:1028C0002502F09126029481933308F435C38111D7
:1028D0006DC061E011968C910E9415048091CF0229
:1028E000F894813009F4F2C1823009F4FEC180937A
:1028F000CF027894B091CF02BF831B160CF056C064
:10290000C0900302D0900402F60163817481858136
:1029100096810E94851E9B01AC0160E070E08AE711
:1029200094E40E94E8202B013C012EEA37E346E8BC
:1029300056E40E94E61E4B015C0120E030E040E8D6
:102940005FE30E94801E87FD31C0D60117966D910E
:102950007D918D919C911A97611571058105910565
:1029600009F4D2C10E94851EA30192010E94E61EB5
:1029700020E030E04AE754E40E94E8200E945A2117
:102980006093DA027093DB028093DC029093DD02A5
:102990008091DA029091DB02A091DC02B091DD021D
:1029A000181619061A061B060CF4B9C181E0D101EC
:1029B0008C938091090290910A02009739F0DC0112
:1029C000ED91FC910190F081E02D09950E94F904B0
:1029D000685E734081099109009105021091060219
:1029E00020910702309108020617170728073907B8
:1029F00048F50E94F90460930502709306028093E3
:102A0000070290930802693E734081059105D0F05A
:102A100080910F0290911002009739F0DC01ED9146
:102A2000FC910190F081E02D099580912502909113
:102A30002602009739F0DC01ED91FC910190F081C4
:102A4000E02D099580913002882309F4A4C30E94E7
:102A5000F904693E73408105910508F49CC30E9406
:102A6000F904685E73408109910900911F02109179
:102A70002002209121023091220206171707280711
:102A8000390708F088C30E94F90460931F0270930D
:102A90002002809321029093220287EC94E00E940E
:102AA000DD0880910401909105018130910509F0C4
:102AB0008FC384E194E00E940F07009113021091EC
:102AC0001402F80184810E947F04D80112966D914E
:102AD0007C9113976817790708F06AC24D915C9151
:102AE0008417950780F49C01261B370BCA01861BAF
:102AF000970B64E670E00E943620C9010E943620E0
:102B0000653608F456C264E654C282E0E8CC8FE031
:102B100096E09093010180930001809169008C7F81
:102B2000826080936900E89A35CE1230C0F087E861
:102B300091E09F938F9382E691E09F938F9381E33F
:102B400092E09F938F930E94C70984E992E00E94CC
:102B5000DD080F900F900F900F900F900F9087E06F
:102B600090E00E94DB218C0156EEE52E52E0F52E1E
:102B7000FC01F682E58281E1808360E00E944304EB
:102B80006AEAC62EDD24D394D8011496DC92CE9244
:102B900013977DE1872E73E0972E12969C928E926A
:102BA000119710931E0200931D0287E090E00E948F
:102BB000DB218C01FC01F682E58280E1808360E00C
:102BC0000E944304D8011496DC92CE921397E0E35E
:102BD000AE2EE3E0BE2E1296BC92AE9211971093E9
:102BE0001C0200931B0287E090E00E94DB218C0115
:102BF000FC01F682E5828FE0808360E00E9443045E
:102C0000D8011496DC92CE92139712969C928E92D3
:102C1000119710931A020093190287E090E00E9426
:102C2000DB218C01FC01F682E5828EE0808360E08E
:102C30000E944304D8011496DC92CE921397129608
:102C4000BC92AE921197109318020093170282E182
:102C500090E00E94DB218C0183E291E0F8019183F6
:102C60008083F382E28287E084838AE085830E9406
:102C7000F904D80116966D937D938D939C931997C3
:102C80000E94F904F801628773878487958761E061
:102C900085810E944304C8010E947F0B1093160295
:102CA0000093150284E090E00E94DB21FC01F18298
:102CB000E08285E0828386E0838361E085E00E9494
:102CC000430461E086E00E944304E7CD1092800057
:102CD0001092810090918100986090938100909172
:102CE000810091609093810002CE1092B00010920A
:102CF000B1009091B00092609093B0009091B100BB
:102D000091609093B100F3CD8FEF9FEFDC01809342
:102D1000DA029093DB02A093DC02B093DD029F8184
:102D200020E030E040E852E4923009F496C0C5015A
:102D3000B4010E94D121181674F020E030E040E088
:102D400051E4C501B4010E94D12102E010E018163F
:102D500014F003E010E0C801880F991FDC01AB5CA0
:102D6000BE4F6D01F601619171916F0190E080E0BD
:102D70000E94851EA30192010E94E61E9B01AC01E8
:102D800060E074E284E79BE40E94E82020E030E009
:102D900040E85FE30E9464200E9461216115F0EC2D
:102DA0007F07FFEF8F07FFE39F07D0F56093D20205
:102DB0007093D3028093D4029093D5026093D6028D
:102DC0007093D7028093D8029093D9021093D102C6
:102DD0000093D002F8944092DE025092DF0260929B
:102DE000E0027092E10281E096E09093E30280932A
:102DF000E2021092E5021092E4021092CE0280915B
:102E0000CF02823009F08CC08091B100887F909110
:102E1000D002892B8093B1000E940E037894C6CD16
:102E20000F5F1F4F0630110509F09CCF6093D2024F
:102E30007093D3028093D4029093D5026093D6020C
:102E40007093D7028093D8029093D90225E030E0A6
:102E50003093D1022093D002BDCFC501B4010E94AE
:102E6000D1211816D4F020E030E040E051E4C50153
:102E7000B4010E94D12102E010E0181674F020E0A5
:102E800030E040E050E4C501B4010E94D12103E0EC
:102E900010E0181614F004E010E0C801880F991F24
:102EA000DC01AB5DBE4F6D01F601619171916F0167
:102EB00090E080E00E94851EA30192010E94E61E20
:102EC0009B01AC0160E074E284E79BE40E94E8208F
:102ED00020E030E040E85FE30E9464200E9461212E
:102EE0006115F0EC7F07FFE38F07910508F45ECFD3
:102EF0000F5F1F4F08301105B9F66093D20270932F
:102F0000D3028093D4029093D5026093D60270933B
:102F1000D7028093D8029093D90227E030E098CF6F
:102F2000813009F079CF80918100887F9091D00223
:102F3000892B8093810070CF813039F460E0F101FA
:102F400081810E9415040E947403D1011C9231CD2D
:102F50000230110509F076CD80911502909116028C
:102F6000009739F0DC01ED91FC910190F081E02DAA
:102F700009950E94F904685E7340810991090091E6
:102F80000B0210910C0220910D0230910E020617D7
:102F900017072807390708F055CD0E94F9046093F8
:102FA0000B0270930C0280930D0290930E024ACD97
:102FB00060E070E090E080E04AE00E94610883E514
:102FC00091E00E9454088FEF93E00E940F07E09178
:102FD0001102F091120203811481C8010E940505BB
:102FE000882341F0F80186818C3009F467C038F4F9
:102FF0008B30E1F060E070E080EC9FE73EC08551EF
:103000008230C0F7D2806D2D70E0762F662766275C
:103010007F778381682B90E080E00E94851E2DECF5
:103020003CEC4CEC5DE30E94E61E63C0628170E004
:1030300090E080E00E94851E4B015C01F801138145
:1030400017FF0AC0AC019B0160E070E080E89FEBD5
:103050000E9464204B015C011F70612F70E090E0C2
:1030600080E00E94871E2DEC3CEC4CEC5DE30E945E
:10307000E61EA50194010E94652042E00E94EB0833
:1030800088EF93E00E940F07E0911102F091120285
:1030900003811481C8010E940505882351F0F801BD
:1030A00086818B3030F08D3040F18551823008F4CC
:1030B0007FC060E070E080EC9FE73AC0D2806D2D69
:1030C00070E090E080E00E94851E4B015C01F801F9
:1030D00063816F7070E090E080E00E94871E2DECAD
:1030E0003CEC4CEC5DE30E94E61EA50194010E94BD
:1030F0006520D7FEC2CF9058C0CF618170E090E0CC
:1031000080E00E94871E2DEC3CEC4CEC5DE30E94BD
:10311000E61E4B015C01F801608170E090E080E008
:103120000E94871E9B01AC01C501B4010E9465206D
:1031300042E00E94EB088DEA91E00E94CB088BEE02
:1031400093E00E940F07E0912502F091260264812E
:1031500070E090E080E04AE00E94610883E591E041
:103160000E94540887ED93E00E940F07E0910F0240
:10317000F091100266857785808991898827992743
:103180004AE00E94610883E591E00E94540882EBC6
:1031900094E00E94DD0880E090E0892B09F481CB67
:1031A0000E948C06882309F478CB0E94000075CB1E
:1031B0006081718176276727762790E080E00E9402
:1031C000851E2DEC3CEC4CEC5DE30E94E61EB0CF7E
:1031D0000297E9F680911D0290911E020E944A0713
:1031E0001F928F931F9281E08F93E4E9F4E0FF93A5
:1031F000EF93FF92EF920E94140A80911B0290912C
:103200001C020E944A071F928F931F9282E08F93A5
:1032100086E794E09F938F93FF92EF920E94140AA7
:103220008091190290911A020E944A071F928F936F
:103230001F9283E08F93E8E5F4E0FF93EF93FF9212
:10324000EF920E94140A80911702909118020E9436
:103250004A071F928F931F9284E08F938AE394E032
:103260009F938F93FF92EF920E94140A0FB6F894E7
:10327000DEBF0FBECDBFE0911502F091160246856C
:10328000578560897189CE0101960E94080B8A8159
:103290008F9389818F9329E234E03F932F93FF929C
:1032A000EF920E94140ACE0101960E94770B0F90B4
:1032B0000F900F900F900F900F9069CF86EE92E0D5
:1032C0000C94770BEF920F931F93CF93DF93E8014A
:1032D00034E047FD34E1042E000C550B57FF03C0CA
:1032E000519541955109E32E022F242FAE010E94E2
:1032F000A51BCE01DF91CF911F910F91EF90089503
:10330000FB01DC0105900D920020E1F70895FC011E
:1033100005900020E9F7809590958E0F9F1F0895E6
:10332000CF93DF93EC018B8188608B83CE010E9469
:10333000CB192B81277F2B83DF91CF910895AEE0AE
:10334000B0E0E5EAF9E10C94DC1F8C01FA018EE0B3
:103350008C831A83098377FF02C060E070E86150B4
:1033600071097E836D83A901BF01CE0101960E9480
:10337000CB194D815E8157FD0AC02F8138854217D8
:1033800053070CF49A01020F131FF80110822E96B6
:10339000E4E00C94F81FABE0B0E0E1EDF9E10C944F
:1033A000CE1F7C013B018A01FC01178216828381BA
:1033B00081FFC8C1CE0101965C01F7019381F30141
:1033C00093FD859193FF81913F01882309F453C1B7
:1033D000853239F493FD859193FF81913F018532C8
:1033E00029F4B70190E00E94F21DE7CF912C212C27
:1033F000312CFFE1F31538F08B3211F190F480326B
:1034000009F1833229F137FC3CC020ED280F2A3026
:1034100050F536FE20C08AE0989E200D1124922E91
:1034200006C08D3291F0803371F7689430F8F30163
:1034300093FD859193FF81913F018111DACF21C0E6
:10344000689431F8689432F8F2CF689433F8EFCF8B
:10345000689434F8ECCFEAE02E9E200D1124222E41
:10346000689435F8E4CF8E3229F436FC04C16894B0
:1034700036F8DDCF8C3619F4689437F8D8CF883613
:10348000B1F2982F9F7D95549330E0F08336A1F1EF
:103490008337C1F1833509F063C02801F2E04F0E94
:1034A000511CF801C080D180692D70E036FC02C04B
:1034B0006FEF7FEFC6010E94DC1D4C01689437F866
:1034C00082010AC00C5F1F4FFFE3F98388248394B5
:1034D000912C6501E89437F833FE2DC0522C8114ED
:1034E000910471F5552009F468CFB70180E290E0AE
:1034F0000E94F21D5A94F6CFF801808189830E5FF5
:103500001F4FE4CF2801F2E04F0E511CF801C0809C
:10351000D180692D70E036FC02C06FEF7FEFC601ED
:103520000E94E71D4C018201D5CFB70180E290E0F7
:103530000E94F21D2A942814190409F0B0F7CECF86
:10354000F60137FC859137FE81916F01B70190E05C
:103550000E94F21D51105A94F1E08F1A9108BFCFCA
:10356000843619F0893609F077C0F80137FE6BC050
:1035700060817181828193810C5F1F4FF32DFF76F3
:103580003F2E97FF09C090958095709561957F4F6C
:103590008F4F9F4F689437F82AE030E0A5010E94D2
:1035A000221EC82ECA188C2C432C36FE0CC0E89460
:1035B00040F8C91440F434FE05C032FC03C0F32DBA
:1035C000FE7E4F2E892C44FE95C0FE01EC0DF11DB0
:1035D0008081803309F087C0242D297E422E842DDE
:1035E0008870582E43FC95C040FE8FC09C2C8214DE
:1035F00018F42C0C922C981844FE91C0B70180E36B
:1036000090E00E94F21D42FE09C088E790E041FE72
:1036100002C088E590E0B7010E94F21DC91408F4C9
:103620008AC0CA94D12C9FEFC91AD90ACA0CDB1CD4
:10363000F60182916F01B70190E00E94F21DAC1477
:10364000BD04B1F74FCF60817181072E000C880B4C
:10365000990B0E5F1F4F92CFD32CE894D4F82AE039
:1036600030E0853739F1232D297FD22E8F3601F1B5
:1036700048F48835A9F0F701868197812B96E2E11D
:103680000C94EA1F803749F08837A9F7D4FE02C0AE
:103690006894D2F820E130E00DC06894D4F8F6CFF9
:1036A00034FE03C0822F8660D82E20E132E002C0B3
:1036B00028E030E0F801D7FE0FC06081718182817F
:1036C00093810C5F1F4FA5010E94221EC82ECA18AD
:1036D0003D2CE89437F867CF6081718190E080E0FD
:1036E0000E5F1F4FF0CF42FC02C0839478CF8394CB
:1036F000839475CF842D867809F471CFF6CFB70106
:1037000080E290E00E94F21D83948214C0F3512C59
:1037100073CF522C5818821408F46ECFF8CF842D32
:10372000867809F47BCF8BE241FE80E247FC8DE294
:10373000B70190E071CFB70180E390E00E94F21DE5
:103740009A946CCF8FEF9FEF99CFA9E0B0E0EBEAAE
:10375000FBE10C94D41F6A01F22EB02E102FFBE374
:10376000AF2EA01608F41BE31F5F012F27E0AE0168
:103770004F5F5F4F0E94041DBC018981982F997093
:10378000913009F43FC09BE2E1FC04C09E2D917092
:10379000E0FC3AC05E2D5071E82FE87083FF46C010
:1037A00084E0911101C083E0EF2DE81B8F1508F034
:1037B000E0E0D6018E2F20E2552351F1992329F024
:1037C000D6019C93C60101966C0196012D5F3F4F77
:1037D000E2FE24C08EE4D6018C9391E411969C9372
:1037E000119712968C93D9018E2F90E281111BC0F4
:1037F000E20FF32FF11D10828EEF9FEF2996ECE080
:103800000C94F01F9DE2C6CF90E2C4CF2D9381505F
:103810008111FCCFCE0ED11CE0E0D0CF8EE6D601D8
:103820008C9391E6DBCF9D938150E0CF482F44707D
:1038300082FF3DC084E0911101C083E08F1510F438
:10384000EF2DE81BD6018E2F20E2552309F1992395
:1038500029F0D6019C93C60101966C0196012D5F5B
:103860003F4FE2FE1BC089E4D6018C938EE4119693
:103870008C93119786E412968C93D9018E2F90E247
:10388000882309F4B5CF9D938150FACF2D938150B1
:103890008111FCCFCE0ED11CE0E0D9CF89E6D60154
:1038A0008C938EE611968C93119786E6E4CF9B015C
:1038B00077FF02C030E020E0A1E0B0E0911102C04B
:1038C000B0E0A0E0F9013196AE0FBF1F8B2C912C18
:1038D000BB2009F461C05401EFEFAE1ABE0AAA0D75
:1038E000BB1DFA161B0619F014F04F2D4A1B51117F
:1038F00088C0E3FC59C07601A42FB0E2A1114FC0EB
:10390000C40ED11C992309F45BC040E0D601119686
:10391000F60190836D01552309F448C0012F060F6D
:103920009A81582F507184FF03C0913309F40150DC
:1039300010160CF047C0093008F008E0EEE2FE2E49
:103940005B01A01AB10885019194819491082F3FE1
:10395000320729F4D601FC92F60131966F01621705
:10396000730794F1021713077CF5DB01A21BB30B5D
:10397000AA24A394B12CAC0EBD1EAA0DBB1D11969A
:103980008C9121503109D601119628153905F4F092
:10399000F60180836D01DBCFB12CA12CA0CFF70104
:1039A000B1937F01A150AACF9111B0CFD601942F2E
:1039B00050E302C05D9391509111FCCFC40ED11C15
:1039C00040E0ACCF01E0BACF80E3DBCF62177307F2
:1039D00031F4963388F4953311F4552369F0F601E8
:1039E0008083FD01842F90E2811108C0A40FB11DD6
:1039F0001C9290E080E002CF81E3F1CF919381505F
:103A0000F3CF911183CF8ACF283008F027E03327F6
:103A1000DA01990F311D87FD9160009661057105EE
:103A200039F432602E5F3D9330E32A95E1F7089533
:103A30009F3F30F080387105610509F03C5F3C5FC5
:103A40003D93913008F08068911DDF93CF931F93D1
:103A50000F93FF92EF92192F987F9695E92F9695E5
:103A60009695E90FFF27EE53FF4F99273327EE2452
:103A7000FF24A701E70105900894079428F4360F66
:103A8000E71EF81E491F511D660F771F881F991FDB
:103A90000694A1F70590079428F4E70EF81E491F35
:103AA000561FC11D770F881F991F661F0694A1F727
:103AB0000590079428F4F80E491F561FC71FD11D03
:103AC000880F991F661F771F0694A1F7059007942A
:103AD00020F4490F561FC71FD81F990F661F771F65
:103AE000881F0694A9F784911095177041F0D69518
:103AF000C79557954795F794E7941A95C1F7E8E667
:103B0000F0E0689415901591359165919591059027
:103B10007FE27395E118F10A430B560BC90BD009EC
:103B2000C0F7E10CF11E431F561FC91FD01D7EF4C4
:103B3000703311F48A95E6CFE894015030F0080F05
:103B40000AF40027021708F4202F2395022F7A3356
:103B500028F079E37D932A95E9F710C07D932A95A3
:103B600089F6069497956795379517951794E118F8
:103B7000F10A430B560BC90BD00998F023957E919F
:103B800073957A3308F070E37C932013B8F77E9135
:103B900070617D9330F0839571E37D9370E32A9596
:103BA000E1F71124EF90FF900F911F91CF91DF91DA
:103BB000992787FD90950895FC010590615070400C
:103BC0000110D8F7809590958E0F9F1F0895FC01E6
:103BD0006150704001900110D8F7809590958E0F3C
:103BE0009F1F08950F931F93CF93DF93182F092FD3
:103BF000EB018B8181FD09C01FEF0FEF812F902F0B
:103C0000DF91CF911F910F91089582FF14C02E81F3
:103C10003F818C819D81281739073CF4E881F98127
:103C2000CF0101969983888310838E819F810196AD
:103C30009F838E83E3CFE885F985812F0995892BB2
:103C4000A1F3DACFFA01AA27283051F1203181F10E
:103C5000E8946F936E7F6E5F7F4F8F4F9F4FAF4F94
:103C6000B1E03ED0B4E03CD0670F781F891F9A1FA7
:103C7000A11D680F791F8A1F911DA11D6A0F711D5B
:103C8000811D911DA11D20D009F468943F912AE067
:103C9000269F11243019305D3193DEF6CF0108954F
:103CA000462F4770405D4193B3E00FD0C9F7F6CF80
:103CB000462F4F70405D4A3318F0495D31FD405248
:103CC000419302D0A9F7EACFB4E0A69597958795DE
:103CD00077956795BA95C9F70097610571050895BD
:103CE0009B01AC010A2E0694579547953795279569
:103CF000BA95C9F7620F731F841F951FA01D089501
:103D00000E94C21E08F481E00895E89409C097FB60
:103D10003EF490958095709561957F4F8F4F9F4FA2
:103D20009923A9F0F92F96E9BB279395F6958795E6
:103D300077956795B795F111F8CFFAF4BB0F11F4A9
:103D400060FF1BC06F5F7F4F8F4F9F4F16C0882350
:103D500011F096E911C0772321F09EE8872F762F86
:103D600005C0662371F096E8862F70E060E02AF0C7
:103D70009A95660F771F881FDAF7880F96958795B3
:103D800097F90895990F0008550FAA0BE0E8FEEF88
:103D900016161706E807F907C0F012161306E4070F
:103DA000F50798F0621B730B840B950B39F40A2608
:103DB00061F0232B242B252B21F408950A2609F4E6
:103DC000A140A6958FEF811D811D08950E94F91EC7
:103DD0000C946A1F0E945C1F38F00E94631F20F041
:103DE000952311F00C94531F0C94591F11240C941B
:103DF0009E1F0E947B1F70F3959FC1F3950F50E0AB
:103E0000551F629FF001729FBB27F00DB11D639F8C
:103E1000AA27F00DB11DAA1F649F6627B00DA11D32
:103E2000661F829F2227B00DA11D621F739FB00DD8
:103E3000A11D621F839FA00D611D221F749F332748
:103E4000A00D611D231F849F600D211D822F762FE1
:103E50006A2F11249F5750409AF0F1F088234AF0BE
:103E6000EE0FFF1FBB1F661F771F881F915050402A
:103E7000A9F79E3F510580F00C94531F0C949E1F90
:103E80005F3FE4F3983ED4F3869577956795B795B1
:103E9000F795E7959F5FC1F7FE2B880F911D9695CB
:103EA000879597F9089597F99F6780E870E060E03B
:103EB00008959FEF80EC089500240A9416161706C3
:103EC00018060906089500240A941216130614060B
:103ED00005060895092E0394000C11F4882352F06E
:103EE000BB0F40F4BF2B11F460FF04C06F5F7F4F26
:103EF0008F4F9F4F089557FD9058440F551F59F00D
:103F00005F3F71F04795880F97FB991F61F09F3FC6
:103F100079F087950895121613061406551FF2CFEF
:103F20004695F1DF08C0161617061806991FF1CF3F
:103F300086957105610508940895E894BB27662766
:103F40007727CB0197F90895052E97FB1EF400946F
:103F50000E94BB1F57FD07D00E94052007FC03D01D
:103F60004EF40C94BB1F50954095309521953F4FD2
:103F70004F4F5F4F089590958095709561957F4F55
:103F80008F4F9F4F08950E942720A59F900DB49FAB
:103F9000900DA49F800D911D112408952F923F92A2
:103FA0004F925F926F927F928F929F92AF92BF9249
:103FB000CF92DF92EF92FF920F931F93CF93DF93F5
:103FC000CDB7DEB7CA1BDB0B0FB6F894DEBF0FBE52
:103FD000CDBF09942A88398848885F846E847D849F
:103FE0008C849B84AA84B984C884DF80EE80FD80A1
:103FF0000C811B81AA81B981CE0FD11D0FB6F89417
:10400000DEBF0FBECDBFED010895A1E21A2EAA1B9F
:10401000BB1BFD010DC0AA1FBB1FEE1FFF1FA21778
:10402000B307E407F50720F0A21BB30BE40BF50B75
:10403000661F771F881F991F1A9469F760957095FE
:10404000809590959B01AC01BD01CF010895A29F81
:10405000B001B39FC001A39F700D811D1124911D5C
:10406000B29F700D811D1124911D0895AA1BBB1BC9
:1040700051E107C0AA1FBB1FA617B70710F0A61B68
:10408000B70B881F991F5A95A9F780959095BC0189
:10409000CD01089597FB072E16F4009407D077FD05
:1040A00009D00E94362007FC05D03EF490958195FA
:1040B0009F4F0895709561957F4F0895EE0FFF1FF4
:1040C0000590F491E02D09945058BB27AA270E942F
:1040D0007C200C946A1F0E945C1F38F00E94631FB2
:1040E00020F039F49F3F19F426F40C94591F0EF474
:1040F000E095E7FB0C94531FE92F0E947B1F58F3B8
:10410000BA17620773078407950720F079F4A6F5BC
:104110000C949D1F0EF4E0950B2EBA2FA02D0B01D1
:10412000B90190010C01CA01A0011124FF27591BFC
:1041300099F0593F50F4503E68F11A16F040A22F02
:10414000232F342F4427585FF3CF46953795279573
:10415000A795F0405395C9F77EF41F16BA0B620B72
:10416000730B840BBAF09150A1F0FF0FBB1F661FB9
:10417000771F881FC2F70EC0BA0F621F731F841FFC
:1041800048F4879577956795B795F7959E3F08F022
:10419000B0CF9395880F08F09927EE0F97958795E4
:1041A00008950E94B92190F09F3748F4911116F4B8
:1041B0000C949E1F60E070E080E89FE3089526F075
:1041C0001B16611D711D811D0C9490210C94AB2157
:1041D0000E94FC200C946A1F0E94631F58F00E94EA
:1041E0005C1F40F029F45F3F29F00C94531F5111DC
:1041F0000C949E1F0C94591F0E947B1F68F39923F7
:10420000B1F3552391F3951B550BBB27AA276217D2
:104210007307840738F09F5F5F4F220F331F441FDF
:10422000AA1FA9F335D00E2E3AF0E0E832D0915013
:104230005040E695001CCAF72BD0FE2F29D0660F00
:10424000771F881FBB1F261737074807AB07B0E843
:1042500009F0BB0B802DBF01FF2793585F4F3AF049
:104260009E3F510578F00C94531F0C949E1F5F3FA6
:10427000E4F3983ED4F3869577956795B795F795CF
:104280009F5FC9F7880F911D9695879597F90895B7
:10429000E1E0660F771F881FBB1F62177307840753
:1042A000BA0720F0621B730B840BBA0BEE1F88F762
:1042B000E09508950E9461216894B1110C949E1FAD
:1042C00008950E94831F88F09F5798F0B92F99276F
:1042D000B751B0F0E1F0660F771F881F991F1AF0F1
:1042E000BA95C9F714C0B13091F00E949D1FB1E09A
:1042F00008950C949D1F672F782F8827B85F39F099
:10430000B93FCCF3869577956795B395D9F73EF489
:1043100090958095709561957F4F8F4F9F4F089531
:10432000882371F4772321F09850872B762F07C0CC
:10433000662311F499270DC09051862B70E060E040
:104340002AF09A95660F771F881FDAF7880F9695DF
:10435000879597F908959F3F31F0915020F4879504
:1043600077956795B795880F911D9695879597F9DD
:1043700008950E94831FA0F0BEE7B91788F4BB27F9
:104380009F3860F41616B11D672F782F8827985F25
:10439000F7CF869577956795B11D93959639C8F3B4
:1043A00008950E94C21E08F48FEF08950E94C21E55
:1043B000880B990B08950F931F93CF93DF9382304F
:1043C000910510F482E090E0E091EE02F091EF02AE
:1043D00030E020E0B0E0A0E0309799F421153105FD
:1043E00009F44AC0281B390B24303105D8F58A81DD
:1043F0009B816115710589F1FB0193838283FE0125
:1044000011C0408151810281138148175907E0F0A2
:104410004817590799F4109761F012960C93129768
:1044200013961C933296CF01DF91CF911F910F917C
:1044300008950093EE021093EF02F4CF2115310599
:1044400051F04217530738F0A901DB019A01BD0171
:10445000DF01F801C1CFEF01F9CF9093EF02809314
:10446000EE02CDCFFE01E20FF31F81939193225014
:10447000310939832883D7CF2091EC023091ED02A6
:10448000232B41F42091090130910A013093ED0270
:104490002093EC022091070130910801211531058C
:1044A00041F42DB73EB740910B0150910C01241BF4
:1044B000350BE091EC02F091ED02E217F307A0F466
:1044C0002E1B3F0B2817390778F0AC014E5F5F4F6A
:1044D0002417350748F04E0F5F1F5093ED024093AD
:1044E000EC02819391939FCFF0E0E0E09CCFCF93DB
:1044F000DF930097E9F0FC01329713821282A091BA
:10450000EE02B091EF02ED0130E020E01097A1F44F
:1045100020813181820F931F2091EC023091ED02B6
:104520002817390709F061C0F093ED02E093EC021F
:10453000DF91CF910895EA01CE17DF07E8F54A81B0
:104540005B819E0141155105B1F7E901FB83EA83C7
:1045500049915991C40FD51FEC17FD0761F4808173
:1045600091810296840F951FE90199838883828146
:1045700093819B838A83F0E0E0E012968D919C9179
:1045800013970097B9F52D913C911197CD010296A3
:10459000820F931F2091EC023091ED02281739070A
:1045A00039F6309751F51092EF021092EE02B09367
:1045B000ED02A093EC02BCCFD383C2834081518132
:1045C000840F951FC817D90761F44E5F5F4F88812C
:1045D0009981480F591F518340838A819B8193831E
:1045E00082832115310509F0B0CFF093EF02E093FB
:1045F000EE029ECFFD01DC01C0CF13821282D7CF25
:10460000B0E0A0E0E6E0F3E20C94D01F8C0100974C
:1046100051F4CB010E94DB218C01C801CDB7DEB77C
:10462000E0E10C94EC1FFC01E60FF71F9C01225007
:104630003109E217F30708F49DC0D901CD91DC914F
:104640001197C617D70798F0C530D10530F3CE01C2
:1046500004978617970708F3C61BD70B2297C193B9
:10466000D1936D937C93CF010E947722D6CF5B01CB
:10467000AC1ABD0A4C018C0E9D1EA091EE02B091A9
:10468000EF02512C412CF12CE12C109731F5809147
:10469000EC029091ED028815990509F05CC0461670
:1046A000570608F058C080910701909108010097C3
:1046B00041F48DB79EB740910B0150910C01841BC2
:1046C000950BE817F90708F055C0F093ED02E09359
:1046D000EC02F90171836083A0CF8D919C911197B9
:1046E00012966C90129713967C901397A815B905A3
:1046F00059F56C0142E0C40ED11CCA14DB0420F150
:10470000AC014A195B09DA011296159780F06282B2
:10471000738251834083D9016D937C93E114F1043A
:1047200071F0D7011396FC93EE93129776CF2296F1
:104730008C0F9D1FF90191838083F301EFCFF093DC
:10474000EF02E093EE0269CF4816590608F42C01F7
:104750007D01D3019ACFCB010E94DB217C01009720
:1047600049F0AE01B8010E94BD23C8010E94772222
:10477000870153CF10E000E050CFFB01DC0102C005
:1047800001900D9241505040D8F70895FB01DC0193
:1047900001900D920020E1F70895AEE0B0E0E3ED66
:1047A000F3E20C94DC1F8C01FA0186E08C831A83FF
:1047B000098377FF02C060E070E8615071097E8371
:1047C0006D83A901BF01CE0101960E94CB194D81D5
:1047D0005E8157FD0AC02F813885421753070CF4BC
:1047E0009A01020F131FF80110822E96E4E00C9438
:1047F000F81F12E0C4EDD2E004C0FE010E945E206A
:0C4800002196C53DD107C9F7F894FFCF01
:10480C00210600000100020000F002800000000000
:10481C0000A80B00000000600D0000000023080041
:10482C00000000C30D0100010008002000400080C2
:10483C00000001000401000100080040000001001C
:10484C000400000000C20622064F062A0780065EFE
:10485C000672060D0A006E616E00696E66006F7658
:10486C0066005B25735D2000444542554700536547
:10487C007474696E67206C6F67206C6576656C204C
:10488C00746F2025730A00494E464F005741524E13
:10489C00494E4700496F542D477265656E686F75B8
:1048AC00736500414C4C00302E312E300025000039
:00000001FF
