:100000000C9465000C948D000C948D000C948D0064
:100010000C948D000C948D000C948D000C948D002C
:100020000C948D000C948D000C948D000C94300277
:100030000C948D000C94A0020C947A020C948D0008
:100040000C948D000C948D000C948D000C948D00FC
:100050000C948D0000003A0037003400310000009D
:100060003B003800350032000202020202020202A6
:100070000404040404040404030303030303030348
:100080000101010101010101010204081020408069
:100090000102040810204080010204081020408062
:1000A000010204081020408000000002000000004F
:1000B0000000000005040007000000000000000030
:1000C0000000000000000000430311241FBECFE524
:1000D000D8E0DEBFCDBF10E0A0E6B0E0ECEEF6E089
:1000E00002C005900D92A237B107D9F721E0A2E72F
:1000F000B0E001C01D92A831B207E1F710E0C5E6FB
:10010000D0E004C02197FE010E946E03C436D107DF
:10011000C9F70E94D2020C9474030C940000EBEA1D
:10012000F0E02491EBE8F0E09491EBE6F0E0E4916C
:10013000EE23C9F0222339F02430F1F0A8F4213065
:1001400011F1223001F1F0E0EE0FFF1FE25AFF4FF4
:10015000A591B4912FB7F894EC91811118C09095A6
:100160009E239C932FBF0895253051F0273059F7D7
:1001700025B52F7D25BDE7CF2FB52F772FBDE3CF39
:100180002FB52F7DFBCF23B72F7D23BFDCCF9E2B39
:10019000E8CF3FB7F8948091140190911501A09198
:1001A0001601B091170122B708B600FE05C02F3F17
:1001B00019F00196A11DB11D3FBFBA2FA92F982F8D
:1001C0008827BC01CD01620F711D811D911D42E088
:1001D000660F771F881F991F4A95D1F708958F9250
:1001E0009F92AF92BF92CF92DF92EF92FF920E94C6
:1001F000C9004B015C0184EFC82EDD24D394E12CAF
:10020000F12C0E94C900681979098A099B09683E86
:10021000734081059105A8F321E0C21AD108E108D5
:10022000F10888EE880E83E0981EA11CB11CC11451
:10023000D104E104F10429F7FF90EF90DF90CF9013
:10024000BF90AF909F908F900895AF92BF92CF9242
:10025000DF92EF92FF920F931F93CF93DF936C0186
:100260007B018B01040F151FEB015E01AE18BF0867
:10027000C017D10759F06991D601ED91FC91019019
:10028000F081E02DC6010995892B79F7C501DF9131
:10029000CF911F910F91FF90EF90DF90CF90BF9083
:1002A000AF900895FC01538D448D252F30E0842FAD
:1002B00090E0821B930B541710F0CF96089501978E
:1002C0000895FC01918D828D981761F0A28DAE0F7B
:1002D000BF2FB11D5D968C91928D9F5F9F73928F02
:1002E00090E008958FEF9FEF0895FC01918D828D2E
:1002F000981731F0828DE80FF11D858D90E00895FB
:100300008FEF9FEF0895FC01918D228D892F90E052
:10031000805C9F4F821B91098F739927089582E714
:1003200090E00E94830121E0892B09F420E0822FD4
:10033000089580E090E0892B29F00E948F018111BF
:100340000C9400000895FC01A48DA80FB92FB11DD5
:10035000A35ABF4F2C91848D90E001968F739927FB
:10036000848FA689B7892C93A089B1898C918274D6
:100370008C93938D848D981306C00288F389E02DA9
:1003800080818F7D80830895EF92FF920F931F935A
:10039000CF93DF93EC0181E0888F9B8D8C8D981338
:1003A00019C0E889F989808185FF14C09FB7F89446
:1003B000EE89FF896083E889F9898081827480836E
:1003C0009FBF81E090E0DF91CF911F910F91FF904F
:1003D000EF900895F62E0B8D10E00F5F1F4F0F73F7
:1003E0001127E02E8C8D8E110CC00FB607FCFACFB2
:1003F000E889F989808185FFF5CFCE010E94A301AC
:10040000F1CFEB8DEC0FFD2FF11DE35AFF4FF08282
:100410009FB7F8940B8FEA89FB8980818062CFCFE8
:10042000CF93DF93EC01888D8823B9F0AA89BB892B
:10043000E889F9898C9185FD03C0808186FD0DC016
:100440000FB607FCF7CF8C9185FFF2CF808185FF37
:10045000EDCFCE010E94A301E9CFDF91CF910895A6
:100460001F920F920FB60F9211242F933F938F93E9
:100470009F93AF93BF938091100190911101A09130
:100480001201B091130130910F0123E0230F2D379A
:1004900068F126E8230F0296A11DB11D20930F01DC
:1004A0008093100190931101A0931201B093130156
:1004B0008091140190911501A0911601B09117013E
:1004C0000196A11DB11D8093140190931501A09375
:1004D0001601B0931701BF91AF919F918F913F91FA
:1004E0002F910F900FBE0F901F9018950196A11D90
:1004F000B11DD4CF1F920F920FB60F9211242F93DC
:100500003F934F935F936F937F938F939F93AF939B
:10051000BF93EF93FF9382E790E00E94A301FF91C6
:10052000EF91BF91AF919F918F917F916F915F916B
:100530004F913F912F910F900FBE0F901F901895E4
:100540001F920F920FB60F9211242F938F939F93A8
:10055000EF93FF93E0918200F09183008081E0911E
:100560008800F091890082FD1BC0908180918B00F2
:100570008F5F8F7320918C00821741F0E0918B0088
:10058000F0E0EE58FF4F958F80938B00FF91EF9135
:100590009F918F912F910F900FBE0F901F901895E4
:1005A0008081F4CF789483B7836083BF83B78864F6
:1005B00083BF89B7816089BF92E09EBD8EB581609F
:1005C0008EBD8FB581608FBD85B5846085BD85B5D5
:1005D000806485BD87E886B91AB8E0918200F09101
:1005E00083009083E0917E00F0917F001082E09183
:1005F0008000F091810080E1808310928A00E09178
:100600008600F091870086E88083E0918400F09175
:100610008500808188698083E0918400F091850065
:1006200080818F7D8083EBE8F0E02491EBE6F0E0C1
:100630008491882399F090E0880F991FFC01EC5A6F
:10064000FF4FA591B491FC01E25AFF4F859194911F
:100650008FB7F894EC91E22BEC938FBFC0E0D0E021
:1006600081E00E948F000E94EF0080E00E948F00D6
:100670000E94EF002097A1F30E948F01882381F34D
:100680000E940000EDCFE2E7F0E01382128288EED4
:1006900093E0A0E0B0E084839583A683B78384E6EB
:1006A00090E09183808380E490E09587848729E2BD
:1006B00030E0378726872BE230E0318B208B2AE22F
:1006C00030E0338B228B958B848B8CE290E0978B80
:1006D000868B118E128E138E148E0895EE0FFF1FCF
:0C06E0000590F491E02D0994F894FFCFF0
:1006EC0000000000C40125015201100283016101C8
:0206FC00750186
:00000001FF
